:020000040800F2
:10000000C046002021020008ED330008EF3300084D
:10001000F1330008F3330008F53300080000000056
:10002000000000000000000000000000990100082E
:10003000F733000800000000C9010008192000087B
:100040003B0200083B0200083B0200083B0200089C
:100050003B0200083B0200083B0200083B0200088C
:100060003B0200083B0200083B0200083B0200087C
:100070003B0200083B0200083B0200083B0200086C
:100080003B0200083B0200083B0200083B0200085C
:100090003B0200083B0200083B0200083B0200084C
:1000A0003B0200083B0200083B0200083B0200083C
:1000B0003B0200083B0200083B0200083B0200082C
:1000C0003B0200083B0200083B0200083B0200081C
:1000D0003B020008E93A00083B0200083B02000826
:1000E0003B0200083B0200083B02000800F002F857
:1000F00000F043F80AA090E8000C82448344AAF17F
:100100000107DA4501D100F038F8AFF2090EBAE87C
:100110000F0013F0010F18BFFB1A43F0010318473B
:100120002C4B00004C4B0000103A24BF78C878C11B
:10013000FAD8520724BF30C830C144BF04680C60ED
:10014000704700000023002400250026103A28BF35
:1001500078C1FBD8520728BF30C148BF0B60704739
:10016000642903F0A787002070471FB59DE80300AE
:1001700004F04EF81FBD10B510BD04F066F911462D
:10018000FFF7F3FF02F048FF04F084F903B4FFF730
:10019000F2FF03BC04F0B4F9194B19680868B0E821
:1001A000F00F80F309884FF0000080F311884EF0C3
:1001B0000D0E70470000000002480068006880F3E0
:1001C000088800DF08ED00E0EFF309800C4B1A68A7
:1001D00020E9F00F106008B54FF0BF0080F31188E0
:1001E00001F035FD4FF0000080F31188BDE80840B4
:1001F00019680868B0E8F00F80F30988704700BFFD
:100200002800002001B44FF0BF0080F3118801BC2A
:10021000704701B44FF0000080F3118801BC7047B3
:100220000948804709480047FEE7FEE7FEE7FEE78A
:10023000FEE7FEE7FEE7FEE7FEE7FEE704480549C6
:10024000054A064B7047000001030008ED00000856
:10025000C0400020C0460020C0420020C042002014
:100260000CB500224C4800920192016841F48031A3
:1002700001604FF4A063016801F40031019100991D
:10028000491C0091019911B900999942F3D1016873
:10029000890333D50121019140490A6842F01002D7
:1002A0000A600A6822F003020A600A6842F0020249
:1002B0000A604168416041684160416841F4806181
:1002C0004160416821F47C114160416841F4E811CA
:1002D0004160016841F08071016001688901FCD5CD
:1002E000416821F003014160416841F00201416031
:1002F0004168C1F381010229FAD10CBD01920CBD04
:10030000254810B5016841F0010101604168244AA7
:10031000114041600168234A11400160016821F4E5
:1003200080210160416821F4FE0141604FF41F010A
:100330008160FFF795FF1C494FF00060086010BD19
:10034000154A10B55068194B10F00C01184803D02D
:10035000042901D0082901D0036012E051685368D4
:1003600001F470114FF0020413F4803F04EB91414B
:1003700002D053689B0301D50E4B00E00B4B594351
:10038000016051680A4AC1F30311121D515C0268F1
:10039000CA40026010BD0000001002400020024070
:1003A0000000FFF8FFFFF6FE08ED00E000127A0003
:1003B0000000002000093D00284908432849086042
:1003C000704730B50F23C27801780125F2B1244A75
:1003D000126801F1E02102F4E062C2F5E062120A63
:1003E000C2F10404D3404278A24084781C401443F4
:1003F000220181F80024007800F01F018D4040099F
:10040000800000F1E020C0F8005130BD01F01F0075
:1004100085404809800000F1E020C0F8805130BDDF
:10042000104A114001430E48001F016070470C4AFA
:10043000121D0029116801D0014300E081431160C1
:1004400070474FF0E0210428086903D020F0040031
:100450000861704740F00400FAE700000000FA0568
:100460000CED00E080FFFF1F8F4910B5884206D1D8
:100470000121042000F049FA002104203BE08B49CF
:10048000884206D10121082000F03FFA002108200F
:1004900031E08749884206D10121102000F035FA69
:1004A0000021102027E08349884206D10121202025
:1004B00000F02BFA002120201DE07F49884206D160
:1004C0000121402000F021FA0021402013E07B4967
:1004D000884206D10121802000F017FA00218020F7
:1004E00009E0774988420AD184150121204600F0AD
:1004F0000CFA00212046BDE8104000F006BA10BDFD
:1005000010B50121084600F000FA0021BDE81040B6
:10051000012000F0FAB9F0B5CC78002204F00F0306
:10052000E40601D58C7823430C784FF00F0C14F0BF
:10053000FF0F4FF0010E1BD005680E880EFA02F473
:100540002640A64210D196000CFA06F725EA0707C6
:1005500003FA06F5CE783D43282E02D0482E02D06D
:1005600002E0446100E00461521C082AE5D3056002
:100570000A88FF2A1CD94468002202F108060EFAF4
:1005800006F50E882E40AE420ED196000CFA06F704
:10059000BC4303FA06F7CE783C43282E00D14561D0
:1005A000CE78482E00D10561521C082AE5D344605C
:1005B000F0BD4FF6FF710180022181700421C170EE
:1005C00070470246002092680A4200D0012070471E
:1005D000806880B2704702460020D2680A4200D08C
:1005E00001207047C06880B2704701617047416167
:1005F00070470AB10161704741617047C16070473F
:1006000041F48032826181618261816980697047D1
:100610002C4B10B51A684FF68074224042EA001045
:100620000843186010BD2849C8617047F0B5254CD3
:10063000002801DAE36900E06368450D2E0185B208
:10064000C0F30157B540C0F30342032F05D0C602E3
:100650000AD503269640B34307E023F0706263682F
:1006600023F07063636002E0AB4343F0706201B15A
:100670002A43002801DAE261F0BD6260F0BD10B5E6
:100680008A0721F003040F49120F21440F238C68BD
:1006900093409C438C608B68904003438B6010BDFB
:1006A0000949C1F8DC00704700080140000C014016
:1006B000001001400014014000180140001C0140DE
:1006C000002001400000014000002042A5480168D0
:1006D00041F0010101604168A34A11404160016895
:1006E000A24A11400160016821F480210160416843
:1006F00021F4FE0141604FF41F0181607047994968
:100700000A6822F480320A600A6822F480220A60B1
:10071000B0F5803F07D0B0F5802F03D1086840F4D2
:10072000A02008607047086840F48030F9E703466D
:10073000002059098B4A01290AD002290AD0516A9E
:1007400003F01F02012393400B4200D001207047A9
:100750001168F5E7116AF3E718B500204FF4A064BB
:1007600000903120FFF7E3FF0099491C0091A1425E
:1007700001D00028F5D03120FFF7D9FF002800D0A4
:10078000012018BD774A116821F0F80141EAC00044
:1007900010607047764908607047724B5A6808438A
:1007A00022F47C1210435860704771490866704704
:1007B0006C4A516821F00301014351607047694858
:1007C000406800F00C007047664A516821F0F00163
:1007D000014351607047634A516821F4E06101436D
:1007E000516070475F4A516821F4605141EAC0008E
:1007F000506070475B4A0029517A01D0014300E004
:100800008143517270475A49C1F8D8007047554A20
:10081000516821F440410143516070475149002221
:1008200081F8202081F82020012802D0042802D15C
:10083000052081F8200070474E49086070474949FB
:100840000A6A02430A6270474A494439086070479D
:1008500030B5444A5168484B11F00C0103D00429CB
:1008600001D0082901D0036012E05168536801F4F7
:1008700070114FF0020413F4803F04EB914102D059
:1008800053689B0301D53D4B00E03B4B594301604E
:1008900051680F2303EA1111394B5C5C0168E14098
:1008A00041605468072505EA14241C5D21FA04F40C
:1008B0008460546805EAD4241B5DD940C160526845
:1008C000032303EA92322E4B1B1F9A5CB1FBF2F119
:1008D000016130BD234A0029516901D0014300E084
:1008E0008143516170471F4A0029916901D001433A
:1008F00000E08143916170471A4A0029D16901D013
:10090000014300E08143D1617047164A0029D16854
:1009100001D0014300E08143D1607047114A0029B2
:10092000116901D0014300E0814311617047114911
:100930004039086070470E49C86470470949C8715A
:1009400070470848416A41F0807141627047054A2A
:100950000146002092680A4200D0012070470149F8
:1009600088727047001002400000FFF8FFFFF6FE9B
:10097000000042428004424200127A0000093D0019
:1009800018000020F94910B5884202D10121C41491
:1009900086E0B0F1804F09D0F54988420DD10121A0
:1009A0000220FFF7BBFF0021022064E0012108467E
:1009B000FFF7B4FF002101205DE0EE49884206D137
:1009C00001210420FFF7AAFF0021042053E0EA4997
:1009D000884206D101210820FFF7A0FF002108204E
:1009E00049E0E649884206D101211020FFF796FF31
:1009F000002110203FE0E249884206D10121202059
:100A0000FFF78CFF0021202035E0DE49884202D12B
:100A10000121441444E0DC49884202D10121CC0484
:100A20003EE0DA49884202D101210C0538E0D8497C
:100A3000884202D101214C0532E0D649884206D1D4
:100A400001214020FFF76AFF0021402013E0D24936
:100A5000884206D101218020FFF760FF002180201D
:100A600009E0CE4988420AD1841501212046FFF7CA
:100A700055FF00212046BDE81040FFF74FBFC84991
:100A8000884202D101210C040AE0C649884202D101
:100A900001214C0404E0C44988420AD101218C049C
:100AA0002046FFF732FF2046BDE810400021FFF747
:100AB0002CBF10BD30B50288AC4CB24DA0420DD059
:100AC000A8420BD0B0F1804F08D0A94B984205D076
:100AD000A84B984202D0A84B984203D122F0700351
:100AE0004A881A43A54B984206D0A54B984203D09A
:100AF00022F44073CA881A4302808A8882850A8851
:100B00000285A0420AD0A84208D0A54A904205D04A
:100B1000A44A904202D0A44A904201D1097A0186A7
:100B20000121818230BD30B5028C22F001020284A5
:100B3000028C8388048B22F0020224F073050C8857
:100B40002C430D8915434A882A43884DA8420BD06F
:100B50008C4DA84208D0924DA84205D0914DA84294
:100B600002D0914DA8420DD122F008054A8923F404
:100B700040732A4322F004058A882A438D891D4345
:100B8000CB892B4383800483C9888186028430BD4E
:100B900070B5028C22F010020284028C8388048BD0
:100BA0000D8824F4E6464FF6FF7404EA0525354324
:100BB0000E8922F0200204EA061616434A8804EA47
:100BC00002123243694EB04202D06E4EB04215D18D
:100BD00022F080064A8923F4406304EA0212324379
:100BE00022F040068A8804EA021232438E8904EA1F
:100BF00086061E43CB8904EA83033343838005833F
:100C0000C9880187028470BD70B5028C22F480729D
:100C10000284028C8388848B0D8824F0730425431E
:100C20000E894FF6FF7422F4007204EA062616437A
:100C30004A8804EA022232434C4EB04202D0514E5E
:100C4000B04215D122F400664A8923F4405304EAE5
:100C50000222324322F480668A8804EA0222324366
:100C60008E8904EA06161E43CB8904EA0313334334
:100C700083808583C9888187028470BD70B5028CAA
:100C800022F480520284058C8288838B0C8823F4A2
:100C9000E6464FF6FF7303EA0424344325F4005676
:100CA0000D8903EA053535434E8803EA06362E439F
:100CB0002E4DA84202D0334DA84205D122F48045E2
:100CC0008A8903EA82122A4382808483C988A0F831
:100CD0004010068470BD828B22F440628283828B36
:100CE0004FF6FF7303EA01210A4382837047828B28
:100CF00022F00C028283828B0A4382837047028B2C
:100D000022F440620283028B4FF6FF7303EA012153
:100D10000A4302837047F0B5048C24F01004048465
:100D2000078B048C4FF6FF7527F4734705EA0333EE
:100D30003B4305EA02221A430C4B05EA011698428E
:100D40000ED0104B98420BD0B0F1804F08D0084B1A
:100D5000984205D0074B984202D0074B984225D1C4
:100D600024F02001314341F0100124E0002C014027
:100D70000004004000080040000C0040001000404B
:100D80000014004000340140004C0140005001407C
:100D90000054014000180040001C004000200040AA
:100DA00000400140004401400048014024F0A003FD
:100DB0000B4343F0100102830184F0BD028B22F04B
:100DC0000C020283028B0A430283704770B5048CC5
:100DD00024F001040484058B048C4FF6FF7606EAA8
:100DE0000313134325F0F305F84A2B4390420ED02A
:100DF000F74A90420BD0B0F1804F08D0F54A9042AC
:100E000005D0F54A904202D0F44A904202D124F033
:100E1000020201E024F00A020A4342F001010383C6
:100E2000018470BD2DE9F84F0D4604460888E74F50
:100E3000DFF89CC3DFF89C83DFF89C934988AA887D
:100E40002B894FF0804A48B304282FD04FF6FF7605
:100E50000828934632D0208C9E4620F4805020846F
:100E6000A38B208C06EA0132009223F4734306EA36
:100E70000B221A4306EA0E331343BC420AD06445E0
:100E800008D0544506D0444504D04C4502D0D34A3E
:100E9000944242D120F40050009940E02046FFF7F0
:100EA00095FFE9882046BDE8F84F87E72046FFF721
:100EB00032FFE9882046BDE8F84F20E7208C20F477
:100EC00080702084B4F81CE0208C06EA031306EA44
:100ED00001222EF0F30E43EA0B0343EA0E030092C5
:100EE000BC420AD0644508D0544506D0444504D0DD
:100EF0004C4502D0B94A944203D120F400700099C5
:100F000001E020F42060084340F48070A383208433
:100F1000E9882046BDE8F84FE9E620F4024008439E
:100F200040F48050A3832084E9882046BDE8F84F30
:100F3000D1E62DE9F0410C460026498807460125F7
:100F400001B90226A288012A00D10225208823891E
:100F50000028384610D0FFF7DEFEE1883846FFF75C
:100F6000CEFE23892A4631463846FFF72FFFE18817
:100F70003846BDE8F04121E7FFF728FFE188384611
:100F8000FFF71CFF23892A4631463846FFF7C3FE88
:100F9000E1883846BDE8F041B1E610B50A884B88D3
:100FA000CC881A438B8823431A430B891A434B89F5
:100FB00089891A430A43A0F8442010BD4FF6FF71F7
:100FC000818000210180C180418001727047002131
:100FD000018041808180C180018141818181C18105
:100FE000704700210180418001228280C1800181FF
:100FF00070470021018041808180C1800181418151
:10100000818170470029018802D041F0010101E08F
:1010100021F0010101807047002930F8441F02D0FF
:1010200041F4004101E0C1F30E0101807047002A44
:10103000828901D00A4300E08A438281704781821D
:1010400070471143A0F848107047002A828901D0E8
:101050000A4300E08A4382817047018921F0070139
:1010600001817047028922F070020A4302817047B1
:1010700000B50346FFF7F6FF188940F00700188116
:1010800000BD70B516460D46602904464FF00102BA
:1010900031460AD0FFF79AFE29462046FFF7E2FFC5
:1010A000208940F00700208170BDFFF734FEF3E790
:1010B00030B504894FF6FF7505EA03231343E4B204
:1010C0000B432343038130BD10B50446FFF7F0FF07
:1010D000208940F07700208110BD10B50446FFF74D
:1010E000E7FF208940F48040208110BD0185828285
:1010F0007047028822F070020A430280704770B580
:101100000589048B068C25F007050D434FF6FC413D
:101110000C4040F201110C434FF6FF7101EA03113C
:1011200026F022061143314305810483018470BDFA
:10113000028B22F070020A4302837047028B4FF643
:10114000FF7322F4E04203EA012111430183704757
:10115000828B22F070020A4382837047828B4FF6A3
:10116000FF7322F4E04203EA0121114381837047B7
:101170000029018802D041F0800101E021F08001C6
:10118000018070470029818802D041F0040101E00C
:1011900021F00401818070470029818802D041F04C
:1011A000080101E021F00801818070470029818851
:1011B00002D041F0010101E021F00101818070477E
:1011C000028B22F008020A4302837047002C014080
:1011D000003401400004004000080040000C0040C2
:1011E000028B4FF6FF7322F4006203EA01211143E0
:1011F0000183EAE7828B22F008020A438283E4E754
:10120000828B4FF6FF7322F4006203EA012111433F
:101210008183DAE7028B22F004020A430283D4E7D7
:10122000028B4FF6FF7322F4806203EA012111431F
:101230000183CAE7828B22F004020A438283C4E757
:10124000828B4FF6FF7322F4806203EA012111437F
:101250008183BAE7028B22F080020A430283B4E75B
:10126000028B4FF6FF73C2F30E0203EA0121114312
:101270000183AAE7828B22F080020A438283A4E7DB
:10128000828B4FF6FF73C2F30E0203EA0121114372
:1012900081839AE7028C22F002020A43028494E7D7
:1012A000028C22F008020A4302848EE7028C4FF679
:1012B000FF7322F0200203EA01111143018484E745
:1012C000028C4FF6FF7322F0800203EA01111143F2
:1012D00001847AE7028C4FF6FF7322F4007203EA6E
:1012E00001211143018470E7028C4FF6FF7322F451
:1012F000006203EA01211143018466E7028C4FF684
:10130000FF7322F4005203EA0131114301845CE7C8
:1013100010B50123048C8B409C430484038C8A40C9
:101320001343038410BD10B50423048C8B409C43ED
:101330000484038C8A401343038410BD30B5012418
:10134000058C00F118038C40A543058489B1082958
:101350000FD0091FC1F34E001844016821F4E04189
:10136000016001684FF6FF7303EA02221143016036
:1013700030BD03EB5100016821F07001016001688C
:10138000F4E70029018802D041F0020101E021F0D8
:101390000201018019E70029018802D041F004010F
:1013A00001E021F0040101800FE70029818802D0CB
:1013B00041F0800101E021F08001818005E7028891
:1013C00022F00802028002880A430280FDE6828839
:1013D00022F07002828082880A438280F5E60289C8
:1013E00022F00702028102890A430281EDE60289A6
:1013F00022F08002028102890A430281E5E68184AB
:10140000E3E68185E1E68186DFE60187DDE6818727
:10141000DBE6A0F84010D8E6028822F44072028091
:1014200002880A430280D0E6808ECEE6008FCCE6AA
:10143000808FCAE6B0F84000C7E6808CC5E6008D14
:10144000C3E602460020128A0A4200D00120BCE610
:10145000C9430182B9E602460020138A92890B42F1
:1014600002EA010202D0002A00D00120ADE6C94301
:101470000182AAE6C44910B588420AD101218C0331
:101480002046FFF742FA2046BDE810400021FFF752
:101490003CBABE49884202D101214C0410E0BC494B
:1014A000884202D101218C040AE0BA49884202D163
:1014B0000121CC0404E0B84988420AD101210C057D
:1014C0002046FFF72BFA2046BDE810400021FFF729
:1014D00025BA10BD30B50446008A85B00D464CF6DD
:1014E000FF710840E98801432182A0894EF6F3117B
:1014F0000840A9882A8911436A8902431143A181BE
:10150000A08A4FF6FF410840A9890143A18268469D
:10151000FFF79EF99C48844201D1039800E00298AD
:10152000A189090400EBC00101EB0010296801D575
:10153000490000E08900B0FBF1F06422B0FBF2F159
:1015400009010B096FF018056B4300EB8300A389B9
:101550001D044FF0320306D503EBC000B0FBF2F0E0
:1015600000F0070005E003EB0010B0FBF2F000F024
:101570000F000843208105B030BD4FF416510160C3
:1015800000218180C18001810C22428181817047CC
:1015900010B5028A4FF2FF031A400B884C88234390
:1015A0008C88C9880C4323431343038210BD002158
:1015B000018041808180C18070470029818902D0EB
:1015C00041F4005101E021F400518181704710B5D0
:1015D000C1F3421301F01F040121A140012B07D0E8
:1015E000022B07D01430002A026805D00A4304E019
:1015F0000C30F8E71030F6E78A43026010BD002A8D
:10160000828A01D00A4300E08A4382827047028ABC
:1016100022F00F020282028A0A4302827047828904
:1016200022F40062828182890A4382817047002904
:10163000818902D041F0020101E021F002018181A3
:101640007047028A22F020020282028A0A43028242
:1016500070470029018A02D041F4804101E021F461
:10166000804101827047C1F3080181807047808802
:10167000C0F308007047818941F001018181704702
:10168000028BD2B20283028B42EA012101837047AE
:10169000028B02F47F420283028B0A43028370476B
:1016A0000029818A02D041F0200101E021F02001CF
:1016B000818270470029818A02D041F0100101E047
:1016C00021F01001818270470029818A02D041F007
:1016D000080101E021F00801818270470029818919
:1016E00002D041F4004101E0C1F30E018181704755
:1016F0000029818A02D041F4006101E021F40061F7
:1017000081827047828A22F004028282828A0A439E
:10171000828270470029818A02D041F0020101E0F3
:1017200021F00201818270470246002012880A429D
:1017300000D001207047C9430180704770B501F0A7
:101740001F0501260024C1F3421306FA05F2012BFE
:101750000FD0022B0FD0838A4FEA11210088134249
:1017600006FA01F600EA060001D000B10124204685
:1017700070BD8389F0E7038AEEE70A0A01219140F0
:10178000C943018070470000003801400044004018
:1017900000480040004C00400050004000F10801AB
:1017A0004FF0FF32C0E90112C16001610021016008
:1017B0007047002101617047426853684B6043687D
:1017C0008B60536899605160416008610168491CF1
:1017D0000160704710B50B685A1C02D000F1080276
:1017E00002E0026904E05268546824689C42FAD915
:1017F00053684B6099608A60516008610168491CB8
:10180000016010BDD0E901128A60D0E90112516077
:1018100001694A68824201D182684A6000220261FD
:101820000868401E086070472DE9FF5F9B46DDE9B0
:101830000E6815468A464420109F00F001FC040003
:1018400009D0A8008146EFB338462063D8B3A5225B
:10185000494602F08AFC002C6DD06FF0030000EBCB
:101860008500216B3546084420F0070751461022B9
:1018700004F1340002F081FC002084F84300052DBF
:1018800000D30425201DE562FFF793FF04F1180043
:10189000FFF78FFF2461C5F105016462A1615A461B
:1018A0003846009900F07CFB2060B8F1000F01D0B1
:1018B000C8F8004000F0A0FBFA4FB868401CB860C0
:1018C000386801E006E008E0DFF8DC8350B1B86971
:1018D00080B336E000F0B4FBB7E7204600F005FC2B
:1018E0000024B8E73C60B86801282AD1002505EB40
:1018F000850108EB8100FFF751FF6D1C052DF6D324
:10190000E9486430FFF74AFFE7487830FFF746FFC1
:10191000E5488C30FFF742FFE348A030FFF73EFF79
:10192000E148B430FFF73AFFDF48643038631430E1
:10193000786306E000E026E03868C06AB04200D86C
:101940003C60E06A3969884200D93861F96A491C0B
:10195000F9627969884200D9786100EB800108EB6F
:101960008100211DFFF728FF012400F04DFBB8691D
:1019700028B13868C06AB04201D200F037FB04B029
:101980002046BDE8F09F4FF0FF34F8E770B50546FC
:1019900000F032FBC34E3068854201D1002520E0C3
:1019A000FDB12C46201DFFF72DFFA06A18B104F1F0
:1019B0001800FFF727FFBC48211DA030FFF7FCFEF1
:1019C0007068401C7060F06A401CF06200F01CFB04
:1019D000B069002807D0002D05D1BDE8704000F0A7
:1019E00005BB3468DEE770BD70B5AE4DE86918B16F
:1019F000286A401C286270BDE868401CE860E868FE
:101A000030B9286B696B29636863A86A401CA862B7
:101A1000A54E18E06068E9688842ECD8201DFFF701
:101A2000F1FEA06A18B104F11800FFF7EBFEE06ABE
:101A30006969884200D9686100EB800006EB80008C
:101A4000211DFFF7B9FE286B006818B1286BC0682C
:101A5000C46800E00024002CDCD170BD2DE9F04703
:101A6000002700F0C9FA8F4EF069401EF061F0695E
:101A700078BBB06868B3DFF83082002508F18C08C5
:101A8000DFF8249218E004F11800FFF7BBFE201DD8
:101A9000FFF7B8FEE06A7169884200D9706100EB17
:101AA000800109EB8100211DFFF786FEE06A3168A5
:101AB000C96A884200D30125D8F80010404611B108
:101AC000C068C46800E00024002CDCD1306A30B962
:101AD00009E011E0FFF788FF306A401E3062306A8B
:101AE0000028F7D103E015B9706A012804D100205D
:101AF0000127706200F07AFA00F086FA3846BDE8F5
:101B0000F0876848C169491CC161704770B50C46CF
:101B100006460022FFF7F5FF624D3368E8681C4473
:101B2000834202D9A34202D805E0A34202D8E86862
:101B3000844200D9012234607AB12868001DFFF781
:101B400061FE28684460E8682968844201D2686BB5
:101B500000E0286B091DFFF73DFEFFF77FFF00281F
:101B600003D1BDE8704000F041BA70BD70B502000D
:101B700018D0FFF7C6FF4B4DE86884182868001D91
:101B8000FFF740FE28684460E8682968844201D273
:101B9000686B00E0286B091DFFF71CFEFFF75EFF76
:101BA000002803D1BDE8704000F020BA70BD10B528
:101BB000044600F021FA0CB93A480468E46A00F0DF
:101BC00023FA204610BD2DE9F04100270D460646B8
:101BD000052900D3042500F00FFADFF8C880D8F8F3
:101BE0000000864201D1002608E03EB13446E06A9A
:101BF000A84228D0854204D926B904E0D8F800408C
:101C0000F5E706B90127C5F10501E562A161264D99
:101C100000EB8000616905EB8000814210D1201D3E
:101C2000FFF7F0FDE06AD8F814204146904200D951
:101C3000486100EB800005EB8000211DFFF7BCFD33
:101C40000FB100F0D3F9BDE8F04100F0DDB915495E
:101C5000C869154A20B1012048627047401E48619A
:101C6000486900EB800052F8200000284869F5D050
:101C700000EB800002EB80004268526800F108032C
:101C800042609A4201D152684260D0680860704751
:101C900070B5054600F0B0F9024E3068854205D1B6
:101CA00000251CE028000020B4000020BDB12C4617
:101CB000201DFFF7A7FDA06A18B104F11800FFF777
:101CC000A1FD211DB148FFF777FD00F09DF9002D22
:101CD0000FD1B06928B1BDE8704000F087B9346811
:101CE000E6E7B068012802D0BDE87040AFE7002009
:101CF000306070BDA54B426900219A4206D1806ACE
:101D0000A3F12802904201D000B901210846704792
:101D100070B5040026D09E4D2868844222D000F081
:101D20006BF92046FFF7E6FF012817D1201DFFF7CA
:101D300069FDE06A6969884200D96861934900EBEE
:101D40008000B43901EB8000211DFFF735FDE06A0A
:101D50002968C96A884201D300F048F9BDE870409B
:101D600000F052B970BD70B504460025FFF7C2FF00
:101D7000012820D1864EF06920B1844804F1180171
:101D8000283816E0E06A3168C96A884201D3012523
:101D900000E00025201DFFF735FDE06A71698842EB
:101DA00000D97061794900EB8000B43901EB800003
:101DB000211DFFF701FD284670BD744CB43C00F0B6
:101DC000B7F820680128FAD900F010F9F7E71FB535
:101DD0000024009401940294234680226DA16F4850
:101DE0000394FFF721FD012809D1FEF70BFA68489B
:101DF00001218161C460BDE81F4000F0DFB81FBD54
:101E000010B5FEF7FFF9624900208861BDE8104077
:101E100000F0EBB810B500F0EFF85D48C46800F0D2
:101E2000F3F8204610BD5A48C0687047584880688B
:101E3000704770B5564C0D4621681831FFF7CAFC43
:101E40002068001DFFF7DEFC681C09D0E0682168EF
:101E500028444860E1688842216808D2606B07E046
:101E60002168BDE870404948091DFFF7A5BC206BFB
:101E7000BDE87040091DFFF7ADBC70B5016811B138
:101E8000C068C46800E0002404F118000646FFF7AB
:101E9000B9FC3F4DE86918B13C48314628380EE09E
:101EA000201DFFF7AFFCE06A6969884200D96861CC
:101EB000364900EB8000B43901EB8000211DFFF7AB
:101EC0007BFCE06A2968C96A884201D3012070BDA1
:101ED000002070BD2E498A6A0260C968416070475F
:101EE00070B50D46044600F087F82868411C14D0F0
:101EF000274922688B6A9A4203D06268CB689A426B
:101F00000DD96268CB689B1A834208D2C968891AC6
:101F1000401A28602046FFF7DDFF002400E001247E
:101F200000F072F8204670BD1949012048627047E0
:101F300070B5174D6868002827D0FFF7E2FD134EF3
:101F4000143E306858B10024FFF788FD002C1CD1E6
:101F500000F052F8306820B1F068C46802E0012453
:101F6000F2E70024201DFFF74DFCA868401EA86082
:101F70006868401E686000F047F8206B00F0B5F814
:101F80002046BDE8704000F0B0B870BD6801002088
:101F90002800002049444C4500000000BB1D0008FB
:101FA00010B5031F4FF080741C601B1F1960191FB0
:101FB00000230B60143940380A6010BD1D4810B56D
:101FC000016841F47F010160016841F07F410160D7
:101FD0004FF0E020184941610721016117490020B5
:101FE0000860FEF7E9F8002010BD704711494FF076
:101FF00080501C390860704710B5FEF703F90F4890
:102000000168491C016010BD0C490868401E086049
:1020100001D1FEF7FEB87047064910B51C394FF0E4
:1020200080500860FEF7EEF8FFF7DEFCBDE81040D8
:10203000FEF7EFB820ED00E03F190100600000203E
:102040002DE9F04104460025FFF75BFD374E06F110
:102050000801706801F1080360B935480860002084
:102060004FF470524860C3E900023148C0E90032C1
:10207000012070603CB11034600704D004F0070008
:10208000C0F108000444601E43F6FF32904227D29C
:10209000264A0968083201E00A4601464868A0421B
:1020A00002D208680028F7D1994219D0156808684B
:1020B000106048681035001B20280DD90B19586096
:1020C0001A484C6008305C6800E0104602685768A7
:1020D000A742FAD31A60036048683168081A306072
:1020E000FFF7BCFC2846BDE8F08110B5002817D0EA
:1020F000A0F11004FFF705FD0C496068083100E00D
:1021000011460A6853688342FAD3226007480C607C
:102110006168026811440160BDE81040FFF79EBC91
:1021200010BD02480068704770470000640000203E
:102130008001002010B586B0044601A8FEF788FB98
:10214000029942F21072B1FBF2F16143084600912C
:1021500003D000BF401E0090FBD106B010BD10B5EB
:1021600086B0044601A8FEF773FB064A0299B1FB4C
:10217000F2F1614308460091EFD000BF401E00908D
:10218000FBD1EAE78096980000EB40000001401E7A
:10219000FDD270474FF496514843401EFDD2704720
:1021A00070B54FF400542146FE4D2846FEF71DFA47
:1021B00021462846BDE87040FEF719BA70B5F94EC1
:1021C00004464FF4804529463046FEF710FA2006B3
:1021D00003D529463046FEF708FAFFF7E1FF294606
:1021E0003046FEF704FA600603D529463046FEF76E
:1021F000FCF9FFF7D5FF29463046FEF7F8F9A006AF
:1022000003D529463046FEF7F0F9FFF7C9FF294606
:102210003046FEF7ECF9E00603D529463046FEF7D6
:10222000E4F9FFF7BDFF29463046FEF7E0F9200745
:1022300003D529463046FEF7D8F9FFF7B1FF294606
:102240003046FEF7D4F9600703D529463046FEF73D
:10225000CCF9FFF7A5FF29463046FEF7C8F9A007DD
:1022600003D529463046FEF7C0F9FFF799FF294606
:102270003046FEF7BCF9E00703D029463046FEF7AA
:10228000B4F9BDE870408BE72DE9F047C54D8946AC
:1022900004464FF400512846FEF7A9F94FF4804751
:1022A00039462846FEF7A3F9BF4E3078A04201D147
:1022B000204312D14FF4806841462846FEF795F935
:1022C0004FF48051284614B1FEF78FF901E0FEF774
:1022D0008EF941462846FEF78AF94846FFF76EFF19
:1022E000347039462846BDE8F047FEF780B9F8B5A6
:1022F00001212020FEF7F7FA4FF4F840ADF8000076
:1023000010208DF803000320A64C8DF802006946CA
:102310002046FEF700F9251529462046FEF767F905
:1023200029012046FEF763F9E61431462046FEF700
:102330005EF96420FFF72EFF31462046FEF755F97F
:102340004FF4FA70FFF726FF29462046FEF74DF9B5
:102350000520FFF719FF29462046FEF748F901211D
:102360000020FFF791FF3220FFF714FFC621002065
:10237000FFF78AFF2820FFF70DFFB9210020FFF7A4
:1023800083FF00210120FFF77FFFB6210020FFF728
:102390007BFF80210120FFF777FF04210120FFF759
:1023A00073FF8A210120FFF76FFF54210120FFF7FF
:1023B0006BFF45210120FFF767FF52210120FFF746
:1023C00063FF43210120FFF75FFFB3210020FFF7E8
:1023D0005BFF02210120FFF757FF0A210120FFF7D1
:1023E00053FF15210120FFF74FFF1F210120FFF7A9
:1023F0004BFF28210120FFF747FF30210120FFF785
:1024000043FF37210120FFF73FFF3F210120FFF766
:102410003BFF47210120FFF737FF4C210120FFF749
:1024200033FF54210120FFF72FFF65210120FFF723
:102430002BFF75210120FFF727FF80210120FFF7E7
:1024400023FF85210120FFF71FFFB5210020FFF7A3
:102450001BFF01210846FFF717FFB7210020FFF7F8
:1024600013FF00210120FFF70FFF00210120FFF7DC
:102470000BFF00210120FFF707FF00210120FFF7DC
:1024800003FF00210120FFF7FFFE00210120FFF7DD
:10249000FBFE00210120FFF7F7FE00210120FFF7DE
:1024A000F3FE00210120FFF7EFFE00210120FFF7DE
:1024B000EBFE00210120FFF7E7FE00210120FFF7DE
:1024C000E3FE00210120FFF7DFFE00210120FFF7DE
:1024D000DBFEBD210020FFF7D7FE00210120FFF722
:1024E000D3FE36210020FFF7CFFE48210120FFF761
:1024F000CBFE2D210020FFF7C7FE00210120FFF7B2
:10250000C3FE03210120FFF7BFFE05210120FFF7D5
:10251000BBFE07210120FFF7B7FE09210120FFF7CD
:10252000B3FE0B210120FFF7AFFE0D210120FFF7C5
:10253000ABFE0F210120FFF7A7FE00210120FFF7CE
:10254000A3FE03210120FFF79FFE05210120FFF7D5
:102550009BFE07210120FFF797FE09210120FFF7CD
:1025600093FE0B210120FFF78FFE0D210120FFF7C5
:102570008BFE0F210120FFF787FE00210120FFF7CE
:1025800083FE05210120FFF77FFE0B210120FFF7CD
:102590007BFE0F210120FFF777FEBA210020FFF715
:1025A00073FE03E0001401407C0000202F21012075
:1025B000FFF76AFE03210120FFF766FE25210020B8
:1025C000FFF762FE61210120FFF75EFEBE210020C1
:1025D000FFF75AFE58210120FFF756FE3A2100204E
:1025E000FFF752FE02210120FFF74EFE03210020DB
:1025F000FFF74AFE2820FFF7CDFD11210020FFF74D
:1026000043FE1420FFF7C6FDBDE8F8402921002055
:102610003AE610B5FB4C362160600020FFF734FE2F
:10262000606858B15A280BD0B4280BD0B0F5877F1A
:102630000AD1C821BDE81040012025E64821F9E76C
:102640000821F7E78821F5E710BD2DE9F0410F4695
:1026500006461D4614462A210020FFF715FE314686
:102660000120FFF711FE39460120FFF70DFE2B2157
:102670000020FFF709FE641CE1B20120FFF704FE11
:102680006D1CE9B20120FFF7FFFDBDE8F0412C21F0
:102690000020F9E510B50B4614461A460146FFF72F
:1026A000D4FFE1B2BDE810400120EDE52DE9FF4F78
:1026B00083B07F28DDE90465DDF848A001D9403802
:1026C000C0B200210091D04900EB80000844019085
:1026D00000990027084410F8A0BC58E0C949486890
:1026E00038B15A2807D0B42803D0B0F5877F03D17A
:1026F00001E0059D00E0049E4FF001084FF0000945
:10270000002423E0BF48406838B15A2810D0B428CC
:1027100003D0B0F5877F17D10AE005EB0400C1B202
:102720001BEA080F06EB07000AD0C0B2069A09E0C0
:1027300005EB0700C1B21BEA080F06EB0400F4D159
:10274000C0B2109AFFF7A6FF641CE4B25445D9D179
:102750004FEA48604FEA1068AA48406838B15A28E2
:1027600009D0B42803D0B0F5877F07D103E005EB8B
:102770000A00C5B202E006EB0A00C6B209F1010088
:1027800000F0FF09B9F1080FBAD37F1CFFB211980E
:102790008742A3D19B48406838B15A2809D0B42851
:1027A00003D0B0F5877F07D103E011983044C6B25B
:1027B00002E011982844C5B20098401CC0B20090B5
:1027C000052801D2019883E707B0BDE8F08FFEB578
:1027D000DDE90965089F06B9012605B90125894C7F
:1027E00064685A2C05D0B42C07D0B4F5877F0DD17E
:1027F00008E0D21CD4B20A4607E0C91C921CC9B238
:10280000D2B203E01446891CCAB221460097CDE932
:102810000165FFF74BFFFEBD2DE9FE4F9B46DDE94D
:102820000D56DDF830A0174688468146002405B9CC
:10283000012596B9012610E004FB05F101EB4103E7
:10284000CDF800A008EB4301CDE90156FAB2C9B2B8
:102850005B46FFF7BCFF641CE4B219F804000028D3
:10286000EAD1BDE8FE8F2DE9FF4F83B07F28DDE977
:102870000465DDF844A001D94038C0B200210091C0
:10288000614900EB8000084401900099002708444A
:1028900010F8A0BC52E05B49486838B15A2807D00C
:1028A000B42803D0B0F5877F03D101E0059D00E097
:1028B000049E4FF001084FF0000900241DE051482C
:1028C000406838B15A280CD0B42803D0B0F5877FBF
:1028D00011D106E01BEA080F0DD02819C1B2F0197A
:1028E00005E01BEA080F06D0E819C1B23019C0B2E2
:1028F000069AFFF7CFFE641CE4B25445DFD14FEADD
:1029000048604FEA10683F48406838B15A2809D0FB
:10291000B42803D0B0F5877F07D103E005EB0A00A8
:10292000C5B202E006EB0A00C6B209F1010000F0F0
:10293000FF09B9F1080FC0D37F1CFFB2109887427E
:10294000A9D13048406838B15A2809D0B42803D0FA
:10295000B0F5877F07D103E010983044C6B202E09B
:1029600010982844C5B20098401CC0B200900528B9
:1029700001D2019889E727E77CB5DDE9066506B94C
:10298000012605B901251F4C64685A2C05D0B42CCA
:1029900007D0B4F5877F0DD108E0D21CD4B20A4627
:1029A00007E0C91C921CC9B2D2B203E01446891CCC
:1029B000CAB22146CDE90065FFF755FF7CBD2DE980
:1029C000FC479A46DDE90A561746884681460024A8
:1029D00005B9012586B901260EE004FB05F101EBDE
:1029E000410308EB4301CDE90056FAB2C9B25346A0
:1029F000FFF7C2FF641CE4B219F804000028ECD110
:102A0000BDE8FC877C0000202A49000870B5054617
:102A10000022502365211046FFF717FE002441F6DF
:102A2000F576E9B20120FFF72FFC641CB442F8D31D
:102A300070BD2DE9F0470646FB48491C089C4068DC
:102A4000CFB270B15A2804D0B4280AD0B0F5877F2D
:102A500024D107EB0208A8F10109354606EB030A69
:102A600032E006EB0208A8F1010907EB030A13E0C4
:102A70003B4609F0FF011A463046FFF7E6FD3546B2
:102A800006E014F8011B0120FFF7FEFB6D1CEDB200
:102A9000A845F6D87F1CFFB2BA45E9D8BDE8F08753
:102AA000294609F0FF033A460846FFF7CEFD3E46A9
:102AB00006E014F8011B0120FFF7E6FB761CF6B2D6
:102AC000B045F6D86D1CEDB2AA45E9D8E6E738B5B1
:102AD000D54C049D64685A2C05D0B42C07D0B4F5AD
:102AE000877F0DD108E0C91CCCB2014607E0C01CAD
:102AF000891CC0B2C9B203E00C46801CC1B220469A
:102B00000095FFF796FF38BD2DE9FC5FC64C646861
:102B10005A2C02D0B4F5877F05D10C4601462046D9
:102B20001C4613462246141A5A1A54EA02030AD0C3
:102B30004FF00108C2464FF0FF33002C08DAC4F111
:102B40000004984607E00C9A02B0BDE8F05FA1E5EA
:102B500001D14FF00008002A01DA52429A4694420D
:102B600005DA234614464FF0000B1A4601E04FF0F9
:102B7000010B5200171B00923A1B06460D4600201F
:102B8000019222E00C9AFFF785FDBBF1000F03D004
:102B900006EB080006B202E005EB0A0005B2002FC2
:102BA00003DA0098384407B20CE00198BBF1000F3B
:102BB000384407B203D005EB0A0005B202E006EB89
:102BC000080006B209F1010000B28146A042E9B254
:102BD000F0B2D7DBB7E72DE9F0411546924A069FE0
:102BE0001E4652685A2A02D0B2F5877F04D10A469F
:102BF00001462E4610461D468A19521ED3B242196E
:102C0000521ED4B20A462146FFF71FFD0024754329
:102C100008E0F9B20120FFF737FBF9B20120FFF716
:102C200033FB641CA542F4D8BDE8F0812DE9FC5FBC
:102C30009942DDF834B002D91C46154603E00C4633
:102C4000054619461046471BA1EB040600D57F42F6
:102C5000002E00DA7642854202DD4FF0FF3000E0C0
:102C600001208146B74222DB7942700000EB41002F
:102C7000C7EB46084FF0000A019014E00C9BE1B24C
:102C8000E8B2CDF800B01A46FFF7A5FFB8F1000F83
:102C900003DA08EB46084D4403E001984D448044B4
:102CA000641C0AF1010ABA45E8DDBDE8FC9F7142E7
:102CB000780000EB4100C6EB47084FF0000A019096
:102CC00013E00C9BE1B2E8B2CDF800B01A46FFF772
:102CD00082FFB8F1000F02DA08EB470802E0019822
:102CE0004D448044641C0AF1010AB245E9DDDCE789
:102CF0002DE9F84F81461044401EC7B2C818DDE9DF
:102D00000AA4401E8846C6B2012528E04A4633463A
:102D1000414610460094FFF7F7FE3A4633464146D7
:102D200010460094FFF7F0FE43463A4619464846DF
:102D30000094FFF7E9FE33463A46194648460094A8
:102D4000FFF7E2FE09F1010000F0FF097F1E761E89
:102D500008F1010000F0FF08FFB2F6B26D1C554506
:102D6000D4D9BDE8F88F2DE9FF4F80462E4883B0B7
:102D70000F4640685A2802D0B0F5877F01D14746F8
:102D8000884600241546C2F1010604EB080005EB55
:102D9000070A02900AF0FF01C0B2069AFFF77AFC18
:102DA00004EB070905EB080B09F0FF010BF0FF002E
:102DB000069AFFF76FFCA8EB040001900AF0FF01F0
:102DC000C0B2069AFFF766FCA8EB0500009009F078
:102DD000FF01C0B2069AFFF75DFCA7EB040A0AF0F8
:102DE000FF010BF0FF00069AFFF754FC0298A7EBD7
:102DF000050909F0FF01C0B2069AFFF74BFC0198E4
:102E000009F0FF01C0B2069AFFF744FC00980AF0EF
:102E1000FF01C0B2069AFFF73DFC002E06DA06EB72
:102E20004406641CF61C07E07C000020601B06EBD7
:102E30004006641C6D1E761DAC42A6DDC4E42DE97F
:102E4000F84F1F468846814600241546C2F1010608
:102E500008EB0500C3B209EB040BC1B2A9EB040AED
:102E60000BF0FF020AF0FF000097FFF74DFEA8EB02
:102E70000500C3B2C1B20BF0FF020AF0FF000097D9
:102E8000FFF742FE08EB0400C3B209EB050BC1B229
:102E9000A9EB050A0BF0FF020AF0FF000097FFF70D
:102EA00033FEA8EB0400C3B2C1B20BF0FF020AF07C
:102EB000FF000097FFF728FE002E04DA06EB440619
:102EC000641CF61C05E0601B06EB4006641C6D1ECE
:102ED000761DAC42BCDD44E72DE9F84F9946DDE9AB
:102EE0000B74DDF8288092460D4606460094FFF7E5
:102EF0000BFE2B463246394640460094FFF704FE4F
:102F00004B465246394640460094FFF7FDFD28E700
:102F10002DE9FC5F9942DDF838B002D91C46154610
:102F200003E00C46054619461046471BA1EB040674
:102F300000D57F42002E00DA7642854202DD4FF056
:102F4000FF3000E001208146B74221DB794270006A
:102F500000EB4100C7EB46084FF0000A019014E077
:102F6000DDE90C23E1B2E8B2CDF800B0FFF7CCFD0B
:102F7000B8F1000F03DA08EB46084D4403E001986E
:102F80004D448044641C0AF1010ABA45E8DD8CE630
:102F90007142780000EB4100C6EB47084FF0000A91
:102FA000019013E0DDE90C23E1B2E8B2CDF800B006
:102FB000FFF7AAFDB8F1000F02DA08EB470802E0BC
:102FC00001984D448044641C0AF1010AB245E9DDD0
:102FD0006BE62DE9FE4F1F46DDE90D540C9E009671
:102FE000CDE90154904689468246FFF791FFCDF81E
:102FF0000080CDE901744B46524629463046FFF722
:1030000087FFCDF800A0CDE901943B464246294612
:103010003046FFF77DFF24E400F054F84FF4805170
:103020002548FDF7E2FA254C08212046FDF7DFFA96
:1030300020212046FDF7DBFAFFF759F9FF20FFF7C3
:10304000E5FC1F4C4FF400412046FDF7CEFAA515D4
:1030500000F002FF00F07CFF28B10128F8D100F059
:103060007DFF70B113E0012000F07BFF2946204670
:10307000FDF7BDFA00F08CFC0028E9D100F0CAF998
:10308000E6E729462046FDF7B2FA00F08AF900F09B
:1030900065FF012806D129462046FDF7A6FA01E082
:1030A00000F038FA00F05AFF0128D1D100F050FFAB
:1030B0000128CDD1F4E70000000C014000140140CC
:1030C000001801402DE9F04F8DB00420FDF7B9F94B
:1030D00001210820FDF707FC01214020FDF703FC3A
:1030E00001210420FDF7FFFB01210846FDF7FBFB52
:1030F00001218803FDF7F7FB01210420FDF7F3FB15
:1031000001210820FDF7EFFB01212020FDF7EBFB5B
:1031100001211020FDF7E7FB01214020FDF7E3FB33
:1031200001210846FDF7E8FB01210220FDF7E4FB41
:1031300001210846FDF7D7FB4FF47040ADF80000C1
:103140001025DFF884B28DF8035002268DF8026056
:1031500069465846FDF7DFF94FF48079ADF80090E5
:103160008DF803508DF8026069469848FDF7D3F951
:10317000E802ADF800008DF803508DF80260694652
:103180009248FDF7C8F96801ADF800001827DFF88C
:1031900040A28DF8037003248DF802406946504622
:1031A000FDF7B9F9A801ADF800004FF004088DF85B
:1031B00003808DF8024069465046FDF7ACF9ADF842
:1031C00000908DF803508DF8024069465046FDF797
:1031D000A2F9A002ADF800008DF803508DF802604E
:1031E00069465846FDF797F9E002ADF800008DF802
:1031F00003508DF8026069465046FDF78CF9ADF832
:1032000000608DF803708DF8024069465846FDF75E
:1032100082F9ADF800808DF803708DF802406946A0
:103220005046FDF778F93C20ADF800008DF80350CA
:103230008DF8024069466748FDF76DF941F61800C0
:10324000ADF8000048258DF803508DF8024069461E
:103250006148FDF760F91C20ADF800008DF80350BF
:103260008DF8024069465948FDF755F900244FF49E
:1032700096400890ADF828400C20584DADF82440F9
:10328000ADF82A00ADF82640ADF82C4008A9284634
:10329000FEF720F95248C02180F800145048202140
:1032A00021384FF00108C0F80011424640F2255184
:1032B0002846FEF78CF901212846FEF77EF94FF4E7
:1032C00096754FF44876ADF81450ADF818604FF08D
:1032D0008049ADF81640ADF81A4005A94846FDF7FB
:1032E000E9FB01A8FDF773FE3027ADF80470ADF8D7
:1032F000068001A94846FDF787FCADF81450ADF8EB
:103300001860ADF81640ADF81A40364C05A92046B5
:10331000FDF7D0FB01A8FDF75AFEADF80470ADF83B
:10332000068001A92046FDF7A9FC0DB0BDE8F08F8D
:1033300070B5254C012813D0022814D003281AD0C8
:1033400004281BD1450329462046FDF74EF9962057
:10335000FEF7F0FE29462046BDE87040FDF747B96C
:103360004FF48055EFE74FF4005529462046FDF70E
:103370003CF93220ECE74FF48045E4E770BD1A4990
:1033800000200870704718480078704770B5164DD7
:1033900004462878844202DD0420FFF7C9FF2C7020
:1033A00070BD70B5094D4FF4004421462846FDF725
:1033B0001EF94FF4FA70FEF7BDFE21462846BDE81F
:1033C0007040FDF712B90000000C014000180140E8
:1033D0000008014000140140001001400038014085
:1033E00025E000E000040040840000207047FEE774
:1033F000FEE7FEE7FEE77047FE4918B1002048707F
:10340000087005E0487818B1087808B101207047C5
:10341000002070472DE9F047F74C08212046FDF7C2
:10342000E6F820212046FDF7E2F804212046FDF7CA
:10343000DCF810212046FDF7D8F8F04D4FF4006974
:1034400049462846FDF7D3F821152846FDF7CFF861
:10345000EB4D49462846FDF7CAF8A1142846FDF76A
:10346000C6F808212046FDF7C0F820212046FDF7C8
:10347000BCF804212046FDF7BAF810212046FDF7DC
:10348000B6F84FF08048C820A8F82C00DD49088025
:1034900001214046FDF7B6FDDFF868A30121AAF13E
:1034A0002C0A5046FDF7AEFDD74F0125D14E28E03E
:1034B00000F0D2FC49463846FDF783F860B9082190
:1034C0002046FDF794F804212046FDF78EF80021F0
:1034D0005046FDF797FD757010213846FDF771F8DD
:1034E00060B920212046FDF782F810212046FDF723
:1034F0007CF800214046FDF785FD35700120FEF780
:1035000019FE0020FFF778FF0028D1D0BDE8F04772
:10351000012071E72DE9FE4FB84E4FF400650024FD
:1035200029463046FDF763F869103046FDF75DF82F
:103530002946B34D2846FDF758F8A9142846FDF74B
:1035400054F8DFF8B4B208215D465846FDF74DF84F
:1035500020212846FDF749F804212846FDF747F8C1
:1035600010212846FDF743F83220FEF7E3FDA14E77
:10357000B06800EBC00101EB00114FF4E17000EB0B
:1035800041004FF4AF613061884200DB31614FF0A0
:103590008040318A81859B4D4FF42F612980012124
:1035A000FDF730FD974801212C38FDF72BFD4FF03A
:1035B00001084FF0000A4FF4FA7700F0C9FC002828
:1035C0007ED000F049FCDFF840924FF4805148462D
:1035D000FCF7F7FF4FF0080180B14846FCF7F1FF18
:1035E00000B3002C6DD0641E962C6AD2B0780228ED
:1035F00072D001287FD0002866D08FE05C46584604
:10360000FCF7F5FF20212046FCF7F1FF04212046BE
:10361000FCF7EBFF10212046FCF7E7FF002000F04D
:10362000A0FC56E008215C465846FCF7E0FF20214C
:103630002046FCF7DCFF04212046FCF7D6FF1021D2
:103640002046FCF7D2FFB068FF25401CB060CDE9F2
:10365000005801224446032311466CA0CDF808808F
:10366000FFF7DAF86CA16D48B26800F0DBFCCDE939
:10367000005403230A22012168480294FFF7CCF882
:10368000FFF7C8FECDE9005403231422012164A0F2
:103690000294FFF7C1F8B06800EBC00101EB001124
:1036A0004FF4E17000EB41025C485BA1103000F088
:1036B000B9FCCDE9005403231E220121574804E040
:1036C00008E048E008E016E02DE010300294FFF733
:1036D000A3F80020BDE8FE8F40F67410B0FBF4F0B4
:1036E00000F0CEFFF060706800F0B2FFF16800F00B
:1036F000DBFF4E490DE040F61420B0FBF4F000F083
:10370000BFFFF060706800F0A3FFF16800F0CCFF2D
:10371000474900F01BFF00F07BFF28807068801C89
:1037200070607CB117E040F63C20B0FBF4F000F094
:10373000A7FFF060706800F08BFFF16800F0B4FF45
:103740003C49E6E7C6F80CA0C6F804800320B07038
:103750004FF42F602880DFF8E09004214846FCF702
:1037600030FF28B10220B0704FF4BE703C46288074
:1037700008214846FCF725FF20B186F80280DC20AE
:103780003C46288010214846FCF71BFF20B186F8F4
:1037900002A0B4203C4628800A20FEF7CBFC0CE7B0
:1037A0002DE9F05F144D0E46044608212846FCF72B
:1037B0001EFF20212846FCF71AFF04212846FCF7AB
:1037C00014FF10212846FCF710FF0C4F4FF400693E
:1037D00049463846FCF70BFF29153846FCF707FF2A
:1037E000DFF820B0DFF818A0B6B2ABF12C0B012C3B
:1037F00026D023E08800002000140140000C014086
:10380000000801402C04004000100140526F756E0A
:1038100064204E723A20000025640000803D0020A4
:103820004D6F746F72205370656564000000BE4375
:1038300000005C430000344300180140022C1BD1FF
:1038400008212846FCF7D1FE04212846FCF7CFFECC
:10385000012C02D0022C05D008E049465046FCF766
:10386000C4FE03E049465046FCF7C1FE68480680A6
:1038700001215846FDF7C6FB4FF480584FF08047B2
:10388000032C01D0042C1AD120212846FCF7ADFED0
:1038900010212846FCF7ABFE032C02D0042C05D0E7
:1038A00008E041465046FCF7A0FE03E04146504682
:1038B000FCF79DFE3846BE850121FDF7A3FB554E62
:1038C000012C16D100F0C8FA0120FEF733FC414666
:1038D0003046FCF776FE0028F4D108212846FCF794
:1038E00086FE04212846FCF780FE00215846FDF79D
:1038F00089FB022C16D100F0AFFA0120FEF71AFC6A
:1039000049463046FCF75DFE0028F4D108212846E0
:10391000FCF76DFE04212846FCF767FE002158469F
:10392000FDF770FB032C16D10120FEF703FC00F01D
:1039300093FA08213046FCF744FE0028F4D12021F8
:103940002846FCF754FE10212846FCF74EFE0021C5
:103950003846FDF757FB042C18D10120FEF7EAFB8F
:1039600000F07AFA10213046FCF72BFE0028F4D143
:1039700020212846FCF73BFE10212846FCF735FEA7
:103980003846BDE8F05F0021FDF73CBBBDE8F09F85
:1039900010B5204C4FF400612046FCF712FE30B108
:1039A00010212046FCF70DFE08B1002010BD0120BB
:1039B00010BD10B5174C4FF400612046FCF701FE16
:1039C00020B910212046FCF7FCFD08B1002010BDF5
:1039D000012010BD10B5104C08212046FCF707FE51
:1039E00020212046FCF703FE04212046FCF7FDFDC4
:1039F00010212046FCF7F9FD00212005FDF702FB10
:103A000003480021BDE810402C38FDF7FBBA000048
:103A10002C0400400010014000140140F0B587B0B4
:103A200001210420FCF75FFF01210846FCF75BFF42
:103A300001218C032046FCF756FF6011ADF8000011
:103A400018208DF80300FF4E03258DF802506946BB
:103A50003046FCF760FD2011ADF8000004208DF821
:103A600003008DF8025069463046FCF754FD0121F1
:103A70002046FCF738FF4FF49640002401900C20BC
:103A8000ADF80E00F04FADF80A40ADF81040ADF8BB
:103A90000C40ADF8084001A93846FDF71BFD012197
:103AA0003846FDF78AFD012240F225513846FDF7E0
:103AB0008EFD25208DF8140001208DF817008DF85B
:103AC00015408DF8164005A8FCF77BFCB015ADF845
:103AD000000010208DF803008DF802506946304632
:103AE000FCF719FD07B0F0BD2DE9F041D64F40F2CB
:103AF00025513846FDF722FE0025D44C4FF4AF7611
:103B0000012805D139883846090709D0FDF7AFFDEE
:103B10004FF458713846FDF711FE012817D019E00F
:103B2000FDF7A5FD0146A088C94A0244401CA080BB
:103B30001170A088B04200D1A5802089401C80B2BD
:103B40002081B042E4D1258101202070E0E7384691
:103B5000FDF78DFD40F2277841463846FDF7EEFD32
:103B6000012811D1E08988B1E089401EE081A08957
:103B7000B8490144401CA08109783846FDF773FD1F
:103B8000A089B04200D1A581BDE8F0814146384608
:103B9000BDE8F0410022FDF71ABD2DE9F041AB4C24
:103BA000E088AB490144401CE0800D78E088B0F526
:103BB000AF7F01D10020E080A34F40F225560022C4
:103BC00031463846FDF703FD2089401E2081012241
:103BD00031463846FDF7FBFC2846D5E79B4800896F
:103BE000002800D00120704770B50446FFF7F6FFAB
:103BF000002548B1954E30890028FCD0FFF7CDFF55
:103C000004F8010BC028F6D1257070BD2DE9F041F4
:103C10000600B9D08D4C4FF4AF75E289AA42FCD0B2
:103C2000894F40F22778002241463846FDF7CFFC05
:103C3000E08950B980213846FDF776FD28B131463C
:103C40003846BDE8F041FDF70EBD60898149014469
:103C5000401C60810E706089A84201D10020608103
:103C6000E089401CE08141463846BDE8F041012230
:103C7000FDF7ADBC88E710B5044602E0641CFFF711
:103C8000C5FF20780028F9D110BDC1F307200B280B
:103C900001D000207047012070472DE9F041074610
:103CA0000C46084600F042FA2178072861F3070520
:103CB000617861F30F25A17861F3174508D04FF0C3
:103CC0000401615C61F317460BD14FF005010AE076
:103CD000E17861F31F65217961F307064FF0060172
:103CE000EFE74FF00301615C61F30F2687E86100A5
:103CF0004AE770B504460D46084600F017FAC1B20F
:103D000007230EE015F8010B44400020220602D5DF
:103D100083EA440200E06200401CC0B2D4B208282A
:103D2000F4D3491EC9B2EDD2204670BD70B5054628
:103D300046480B2210300023027041708370C2206D
:103D400060F3070462F30F2461F317443F491846F8
:103D50001031FFF7CEFFC02160F31F64C02805D0EB
:103D6000C12803D0C22801D07B2803D180F07B007A
:103D700060F31F642C60297170BD10B5334B14467D
:103D80000A0A1033090C1A7059700021997007281B
:103D900001D19C70D9702D4900201031FFF7A9FF87
:103DA0002A498870C4F30721814201D1012010BD46
:103DB000002010BD2DE9F04104460170080A607032
:103DC000080C0D461746A07000F0D1F800262D0E05
:103DD000FFB2FF2808D000F0CAF8E07025716771C3
:103DE000A671FF2000F0C0F800F0C1F8FF2803D151
:103DF000E07025716771A671C6E67CB504460620A1
:103E000000F0BAF8064621466846FFF78FFF0D4DD1
:103E10004FF4807421462846FCF7E7FBDDE90012E9
:103E20003046FFF7C7FF3046FFF725FF3220FEF789
:103E300081F9304600F0CFF821462846FCF7D7FB41
:103E400001207CBD00080140003801409C0000209A
:103E5000A03D0020FE3E0020FEB5062000F08CF8BC
:103E60000646FFF7BBFE002860D00220FFF760FA8D
:103E70003046FFF7B9FE31466846FFF70EFFDDE931
:103E80000145009F2A4621463846FFF776FF08B3D2
:103E90002A4621463846FFF7F8FED8B1C4F3074159
:103EA000042926D006DC012909D002290CD00329D7
:103EB0003CD110E0782930D0792937D123E000F0C7
:103EC00047F838B9022011E000F042F810B901209B
:103ED00000F041F82AE000F041F810B90420FFF7A3
:103EE0008CFF00F03BF8012820D10320FFF785FF6D
:103EF0001CE000F02DF8012818D1002000F02BF86C
:103F0000FFF768FD12E00F4801680F4A01F4E06115
:103F100011430160BFF34F8FFEE7200E00EB8000DE
:103F20006C2101EB4001E8B2FFF73AFC3046BDE8F6
:103F3000FE4000F050B8054948707047034840788B
:103F4000704700000CED00E00400FA059C00002022
:103F5000084840787047074948707047054880789E
:103F600070470449887070470249087070470148DB
:103F700000787047B100002070B5064600F02CF9BB
:103F8000056806F10B0020F00704B4429CBF002036
:103F900070BD2B466A68BAB11068A04210D304F114
:103FA000080188423CBF5068586007D35168101917
:103FB00041601168091B016058601460101D70BDDC
:103FC00013465268002AE7D12146284600F00CF932
:103FD0000028DED170BD70B50446051F00F0FCF866
:103FE0000068002C14BF446870BD002C18BFAC42A0
:103FF0003CBF20466468F8D301680A18AA4218BF7B
:10400000456003D12A6805461144016028684119BA
:10401000A1421CBF6C6070BD616869602168084482
:10402000286070BD0FB41CB5074B06AA7B446946D7
:104030000090059800F081F90020694600F090F9A1
:104040001CBC5DF814FB0000310300002DE9F041B9
:104050000E460446002020622046E168884730B3BF
:10406000252805D0D4E901219047206A401CF2E7B9
:10407000E168204600278847050018D0A5F14100D7
:10408000192802D820354FF40067324629462046C9
:104090002760FCF765F840B1012804D0F61D26F032
:1040A00007060836D8E7361DD6E72846DAE7206A3D
:1040B000BDE8F0812DE9F04106460024106875291D
:1040C000314616A510D0AFF30080002802DA404236
:1040D00013A507E031688A0701D512A502E0490758
:1040E00004D511A5012401E0AFF3008000210A22CC
:1040F00006F1240709E0B0FBF2FCB0FBF2F302FB8F
:104100001C00303078541846491C0028F3D123464F
:104110002A463046BDE8F04100F0B0B8000000008B
:104120002D0000002B0000002000000010B5431CF3
:1041300002E010F8011B71B18107FAD14FF0013292
:1041400002C88C1A8C4314EAC211F9D0C01A0A06AC
:1041500003D0C01E10BDC01A10BD0A0401D0801EBD
:1041600010BD0902FCD0401E10BD02F0FF0343EA5F
:10417000032242EA024200F0FAB810B5044610F0F9
:10418000030F08BF11F0030F40F015804FF0013E00
:10419000121FC0F20E8051F8043BA3EB0E0C2CEA68
:1041A000030C1CEACE1C08BF40F8043BF0D0A1F180
:1041B000040102F10402521E08DB11F8013B002B3E
:1041C00000F8013BF7D1114600F0CFF8204610BDB2
:1041D00070477047704700000048704764400020F7
:1041E000704770477047704738B504460A4600204C
:1041F0006946AFF30080002808BF38BD0246009929
:10420000204600F0D9F8012038BD012000F0EEB8BA
:10421000F8B5AFF30080054600200C46102000BF23
:104220000646A819A0420DD9324669460020AFF3D0
:104230000080070008BF00F0D9F80098A04218BF1E
:104240000546C419FFF7C8FF05600746F01D20F0BA
:1042500007004619284600F00AF8B44208BFF8BD26
:10426000A21B31463868BDE8F84000F0A5B800212F
:104270000160C0E901107047102070472DE9F04738
:104280000D4699469246044600F1240801688806C6
:1042900004D5E06921F01001216000E00120A8426E
:1042A00001DD471B00E00027A1697A1902EB090034
:1042B000081AA0612078C00602D42046AFF300801F
:1042C000002608E0D4E901211AF806009047206A88
:1042D000401C761C20624E45F4DB2078C0060AD5CF
:1042E0002046AFF3008006E0D4E90121302090475A
:1042F000206A401C2062381EA7F10107F4DC07E0A9
:10430000D4E9012118F805009047206A401C20627A
:10431000281EA5F10105F3DC2046AFF300802078CC
:10432000000602D50220BDE8F0870120FBE700006F
:1043300001694A1C02610878704700B58FB0CDE969
:1043400001310021059105497944CDE90310114659
:104350006846FFF77BFE0FB000BD0000E5FFFFFFE2
:104360000A6802F8010B0A6070474FF00002042946
:10437000C0F0128010F0030C00F04180CCF1040C6E
:10438000BCF1020F18BF00F8012BA8BF20F8022BC8
:10439000A1EB0C0100F033B85FEAC17C24BF00F848
:1043A000012B00F8012B48BF00F8012B70470000DB
:1043B000004870475C400020034640688C46002857
:1043C00018BF88423CBF03464068F8D318681844B9
:1043D000884207D00CF1030020F00700001D411AAD
:1043E000521A0146081D0A60FFF7F5BD10B500F02E
:1043F0005FF8BDE8104000F056B84FF0000200B57D
:10440000134694469646203922BFA0E80C50A0E8F7
:104410000C50B1F12001BFF4F7AF090728BFA0E8A5
:104420000C5048BF0CC05DF804EB890028BF40F871
:10443000042B08BF704748BF20F8022B11F0804FB3
:1044400018BF00F8012B704770477546FFF7B0FFA3
:10445000AE4605006946534620F00700854618B071
:1044600020B5FBF7EBFEBDE820404FF000064FF013
:1044700000074FF000084FF0000B21F00701AC4699
:10448000ACE8C009ACE8C009ACE8C009ACE8C009B8
:104490008D46704710B50446AFF300802046BDE856
:1044A0001040FBF773BE002801D000F029B8704718
:1044B00010B5012805D0002103A000F027F8012045
:1044C00010BD09A1F8E7000053494752544D454D2E
:1044D0003A204F7574206F662068656170206D65A5
:1044E0006D6F7279000000003A2048656170206DA0
:1044F000656D6F727920636F727275707465640098
:1045000001491820ABBEFEE72600020070B5054643
:104510000C460A2000E06D1C00F011F835B1287837
:104520000028F8D102E0641C00F009F814B12078EA
:104530000028F8D1BDE870400A20AFF3008008B52C
:1045400069468DF800000320ABBE08BD90EA010F5C
:1045500048BF81F0004100F17A81421A3CBF801AC5
:1045600089184FEAD0524FF07F4C1CEA410FA2EB62
:10457000D15318BF9CEA026F00F03B804FF0004C13
:104580004CEA00204CEA012121FA03FC10EB0C0C50
:104590001ED202F1FF325FEA1C2040EBC25038BF4E
:1045A00070471CF07F0F4FEA400C18BFBCF17F4FE3
:1045B00038BF7047C3F12003994008BF20F00100C5
:1045C000BCF17F4F38BF7047A0F1C04000F033B955
:1045D0004FEA3C00000A40EBC25028BF1CF0FF0F1E
:1045E0004FEA400CE6D018BFBCF17F4F38BF704790
:1045F000EAE79CEA026F05D010EA5C0F08BF00F002
:104600000040704710B500F0D0F800BF64FBBE3E1C
:10461000C10DD1F19E0206DB4FEA002343F00043B7
:1046200023FA02F07047004207D54FEA4001B1F18A
:10463000FE4F02D24FF00000704710B500F0B5F801
:1046400049922480002070476FEA200070470000E4
:1046500010F0004148BF4042B0FA80F310FA03F274
:10466000C3F19D030BD051EAC35101EB1220530655
:1046700038BF704700F1010008BF20F0010070470B
:10468000B0FA80F310FA03F2C3F19D030AD0D90502
:1046900001EB1220530638BF704700F1010008BF3C
:1046A00020F00100704700004FF47F0C1CEAD0128C
:1046B0001EBF1CEAD11392EA0C0F93EA0C0F00F014
:1046C000478090EA010F48BF42F480724FF0004CDF
:1046D0004CEA00204CEA012102EB0302A0FB01138B
:1046E000A2F50002002918BF43F001035B0028BFB8
:1046F0004FEA330342EB22425FEA132C4CEBC250E9
:104700002EBFBCEB436FB2F57C0F70474FEA036CD2
:10471000BCF1004F08BF20F00100B2F57C0F38BF9C
:1047200070470BD582F0FF0212F5803FC8BF70477B
:1047300000F1C040D8BF00F00040704700F5000C09
:104740005FEA4C0C48BF7047B0F1C04000F073B84E
:1047500090EA010F0CEAD11348BF42F4807262451F
:1047600038BF634504D280EA010000F00040704782
:1047700010B500F01AF800BF8900013E00F007B83C
:1047800000F009B85FEA410C5FEA1C6C08D080EACF
:10479000010000F050B85FEA400C5FEA1C6CF6D1F3
:1047A0004FF00040A0F5800070470EF1020E2EF091
:1047B000030E5EF8044B244204D44FEA4102B2F1E6
:1047C0007F4F11D84FEA4003B3F17F4F0CD80ED181
:1047D0004FEAD07CB2F17F4F0CEB4C0C0CF1020C89
:1047E00008BF4CEBD17C04E04FF0080C01E04FEA2D
:1047F000D17C0CEB4C0324FA03F404F00704B4F16D
:10480000040C06D20EEB840CBDE810404CF0010CF9
:104810006047DFE80CF0070802024FF00040A0F507
:10482000800010BD0846420018BFD2F1807288BFD8
:1048300000F0004010BDFF2141EAD050C005704794
:1048400090EA010F48BF81F000413FF586AE421A61
:1048500004D882F00042A0EB020011444FEAD0528B
:104860004FF07F4C1CEA410FA2EBD15318BF9CEADA
:10487000026F4AD04FF0004C4CEA00204CEA012174
:1048800021FA03FCB0EB0C0C0FD412F0FE0F36D063
:104890005FEA4C001DD5001240EBC25038BF704794
:1048A0001CF03F0F18BF70470BE0A2F101025FEA56
:1048B0001C2040EBC25038BF70471CF07F0F18BF60
:1048C0007047C3F12003994014BF401E20F001003F
:1048D000704780084FEA122308BF7047B0FA80FC87
:1048E000A2EB0C02CCF1280C60FA0CF093EA122F28
:1048F00004BF00EBC25070474FEAC3707047130A01
:104900005FEADC1008BF7047F6E79CEA026F04D04C
:1049100010EA5C0F08BF0020704710B5FFF745FF95
:1049200040DFF63E81F000407047000000000000CC
:10493000005F00000007000700147F147F14242A82
:104940007F2A12231308646236495522500005035A
:104950000000001C2241000041221C00082A1C2AE1
:104960000808083E08080050300000080808080839
:10497000003030000020100804023E5149453E003E
:10498000427F400042615149462141454B31181454
:10499000127F1027454545393C4A49493001710984
:1049A00005033649494936064949291E003636006D
:1049B0000000563600000008142241141414141488
:1049C00041221408000201510906324979413E7E14
:1049D0001111117E7F494949363E414141227F41B3
:1049E00041221C7F494949417F090901013E41415A
:1049F00051327F0808087F00417F41002040413F3D
:104A0000017F081422417F404040407F0204027F22
:104A10007F0408107F3E4141413E7F090909063E5F
:104A20004151215E7F091929464649494931010111
:104A30007F01013F4040403F1F2040201F7F201842
:104A4000207F63140814630304780403615149450B
:104A50004300007F4141020408102041417F0000D3
:104A600004020102044040404040000102040020D2
:104A7000545454787F48444438384444442038449B
:104A800044487F3854545418087E090102081454CD
:104A9000543C7F0804047800447D40002040443D9D
:104AA00000007F10284400417F40007C04180478F7
:104AB0007C0804047838444444387C1414140808EE
:104AC0001414187C7C080404084854545420043FEF
:104AD0004440203C4040207C1C2040201C3C403076
:104AE000403C44281028440C5050503C4464544CE2
:104AF00044000836410000007F00000041360800F5
:104B0000000000000000000000007E1111117E7FF7
:104B1000454545397F494949367F01010103C07E3A
:104B2000417FC07F4949494177087F087722494939
:104B300049367F2010087F7F2013087F7F081422CA
:104B400041403E01017F7F0204027F7F0808087F09
:104B50003E4141413E7F0101017F7F090909063E37
:104B60004141412201017F0101274848483F1E2160
:104B70007F211E63140814637F40407FC00F101014
:104B8000107F7F407C407F7F407C40FF017F484812
:104B9000307F4830007F7F48484830224949493EAD
:104BA0007F083E413E760909097F20545454787CA1
:104BB000545454247C545454287C0404040CC07869
:104BC000447CC038545454186C107C106C284454E5
:104BD00054287C2010087C7C2112087C7C10102832
:104BE00044403804047C7C0810087C7C1010107C45
:104BF00038444444387C0404047C7C14141408387D
:104C00004444442004047C04040C5050503C1824B8
:104C10007C241844281028447C40407CC00C101090
:104C2000107C7C4078407C7C407840FC7C54505028
:104C3000207C5020007C7C50505020284454543814
:104C40007C10384438483414147C00006C4C000844
:104C500000000020B400000028010008204D0008DA
:104C6000B40000200C4600004401000800A24A04E1
:104C7000000000000000000001020304060708090C
:104C800002040608000000000102030401020304FC
:104C900006070809000000000000000000000000F6
:104CA0000000000000000000000000000000000004
:104CB00000000000000000000000000000000000F4
:104CC000000000000000000000000000AAAAAAAA3C
:104CD000003C000000000000000000000000000098
:104CE00000000000000000000000000000000000C4
:104CF00000000000000003000100000000000000B0
:104D000000000000000000000000000000000000A3
:104D100000000000000000000000000000FF000094
:04000005080000ED02
:00000001FF
