:020000040800F2
:100000009046002019020008492500084B250008E9
:100010004D2500084F25000851250008000000006C
:100020000000000000000000000000009101000836
:100030005325000800000000C1010008112000083D
:1000400033020008330200083302000833020008BC
:1000500033020008330200083302000833020008AC
:10006000330200083302000833020008330200089C
:10007000330200083302000833020008330200088C
:10008000330200083302000833020008330200087C
:10009000330200083302000833020008330200086C
:1000A000330200083302000833020008330200085C
:1000B000330200083302000833020008330200084C
:1000C000330200083302000833020008330200083C
:1000D00033020008792B00083302000833020008BD
:1000E00033020008330200083302000800F002F86F
:1000F00000F03EF80AA090E8000C82448344AAF184
:100100000107DA4501D100F033F8AFF2090EBAE881
:100110000F0013F0010F18BFFB1A43F0010318473B
:10012000A0360000C0360000103A24BF78C878C15D
:10013000FAD8520724BF30C830C144BF04680C60ED
:10014000704700000023002400250026103A28BF35
:1001500078C1FBD8520728BF30C148BF0B60704739
:100160001FB59DE8030003F015F81FBD10B510BDC5
:1001700003F0B5F81146FFF7F3FF02F001F803F0C2
:10018000D3F803B4FFF7F2FF03BC03F003F9000058
:10019000194B19680868B0E8F00F80F309884FF030
:1001A000000080F311884EF00D0E70470000000033
:1001B00002480068006880F3088800DF08ED00E06E
:1001C000EFF309800C4B1A6820E9F00F106008B5B6
:1001D0004FF0BF0080F3118801F035FD4FF00000B3
:1001E00080F31188BDE8084019680868B0E8F00F8E
:1001F00080F30988704700BF2800002001B44FF049
:10020000BF0080F3118801BC704701B44FF00000BB
:1002100080F3118801BC70470948804709480047AE
:10022000FEE7FEE7FEE7FEE7FEE7FEE7FEE7FEE7A6
:10023000FEE7FEE704480549054A064B7047000003
:10024000F9020008ED0000089040002090460020D0
:1002500090420020904200200CB500224C480092B1
:100260000192016841F4803101604FF4A06301689C
:1002700001F4003101910099491C0091019911B9D3
:1002800000999942F3D10168890333D50121019185
:1002900040490A6842F010020A600A6822F003022C
:1002A0000A600A6842F002020A60416841604168DF
:1002B0004160416841F480614160416821F47C11F2
:1002C0004160416841F4E8114160016841F080718A
:1002D000016001688901FCD5416821F0030141609A
:1002E000416841F0020141604168C1F38101022986
:1002F000FAD10CBD01920CBD254810B5016841F042
:10030000010101604168244A114041600168234AAB
:1003100011400160016821F480210160416821F4ED
:10032000FE0141604FF41F018160FFF795FF1C49FA
:100330004FF00060086010BD154A10B55068194BA9
:1003400010F00C01184803D0042901D0082901D06D
:10035000036012E05168536801F470114FF0020419
:1003600013F4803F04EB914102D053689B0301D505
:100370000E4B00E00B4B5943016051680A4AC1F330
:100380000311121D515C0268CA40026010BD0000DA
:1003900000100240002002400000FFF8FFFFF6FEC0
:1003A00008ED00E000127A000000002000093D0086
:1003B0002849084328490860704730B50F23C278A0
:1003C00001780125F2B1244A126801F1E02102F41A
:1003D000E062C2F5E062120AC2F10404D34042783E
:1003E000A24084781C401443220181F80024007844
:1003F00000F01F018D404009800000F1E020C0F8AE
:10040000005130BD01F01F0085404809800000F117
:10041000E020C0F8805130BD104A114001430E4821
:10042000001F016070470C4A121D0029116801D09D
:10043000014300E08143116070474FF0E021042840
:10044000086903D020F004000861704740F0040000
:10045000FAE700000000FA050CED00E080FFFF1F46
:100460008F4910B5884206D10121042000F049FAD5
:10047000002104203BE08B49884206D1012108205D
:1004800000F03FFA0021082031E08749884206D178
:100490000121102000F035FA0021102027E08349C7
:1004A000884206D10121202000F02BFA00212020D3
:1004B0001DE07F49884206D10121402000F021FA49
:1004C0000021402013E07B49884206D10121802091
:1004D00000F017FA0021802009E0774988420AD10C
:1004E00084150121204600F00CFA00212046BDE8C9
:1004F000104000F006BA10BD10B50121084600F00A
:1005000000FA0021BDE81040012000F0FAB9F0B572
:10051000CC78002204F00F03E40601D58C78234345
:100520000C784FF00F0C14F0FF0F4FF0010E1BD0A2
:1005300005680E880EFA02F42640A64210D19600F5
:100540000CFA06F725EA070703FA06F5CE783D43CD
:10055000282E02D0482E02D002E0446100E004615F
:10056000521C082AE5D305600A88FF2A1CD9446872
:10057000002202F108060EFA06F50E882E40AE4261
:100580000ED196000CFA06F7BC4303FA06F7CE78B4
:100590003C43282E00D14561CE78482E00D105611C
:1005A000521C082AE5D34460F0BD4FF6FF7101806C
:1005B000022181700421C1707047024600209268B8
:1005C0000A4200D001207047806880B2704702461E
:1005D0000020D2680A4200D001207047C06880B273
:1005E000704701617047416170470AB1016170470E
:1005F00041617047C160704741F48032826181611E
:1006000082618169806970472C4B10B51A684FF67A
:100610008074224042EA00100843186010BD284947
:10062000C8617047F0B5254C002801DAE36900E0A5
:100630006368450D2E0185B2C0F30157B540C0F384
:100640000342032F05D0C6020AD503269640B343C2
:1006500007E023F07062636823F07063636002E078
:10066000AB4343F0706201B12A43002801DAE26132
:10067000F0BD6260F0BD10B58A0721F003040F4998
:10068000120F21440F238C6893409C438C608B682D
:10069000904003438B6010BD0949C1F8DC007047EE
:1006A00000080140000C014000100140001401400E
:1006B00000180140001C01400020014000000140E2
:1006C00000002042A548016841F001010160416835
:1006D000A34A114041600168A24A114001600168CB
:1006E00021F480210160416821F4FE0141604FF452
:1006F0001F018160704799490A6822F480320A60BC
:100700000A6822F480220A60B0F5803F07D0B0F575
:10071000802F03D1086840F4A02008607047086863
:1007200040F48030F9E70346002059098B4A01293B
:100730000AD002290AD0516A03F01F020123934014
:100740000B4200D0012070471168F5E7116AF3E70A
:1007500018B500204FF4A06400903120FFF7E3FFAC
:100760000099491C0091A14201D00028F5D0312008
:10077000FFF7D9FF002800D0012018BD774A116883
:1007800021F0F80141EAC000106070477649086026
:100790007047724B5A68084322F47C121043586029
:1007A00070477149086670476C4A516821F003012F
:1007B0000143516070476948406800F00C00704781
:1007C000664A516821F0F001014351607047634A65
:1007D000516821F4E0610143516070475F4A5168FC
:1007E00021F4605141EAC000506070475B4A002923
:1007F000517A01D0014300E08143517270475A4958
:10080000C1F8D8007047554A516821F4404101436E
:10081000516070475149002281F8202081F8202042
:10082000012802D0042802D1052081F82000704759
:100830004E490860704749490A6A02430A62704794
:100840004A4944390860704730B5444A5168484BBA
:1008500011F00C0103D0042901D0082901D0036054
:1008600012E05168536801F470114FF0020413F460
:10087000803F04EB914102D053689B0301D53D4B6F
:1008800000E03B4B5943016051680F2303EA11110B
:10089000394B5C5C0168E14041605468072505EA1A
:1008A00014241C5D21FA04F48460546805EAD424FD
:1008B0001B5DD940C1605268032303EA92322E4B7C
:1008C0001B1F9A5CB1FBF2F1016130BD234A002984
:1008D000516901D0014300E08143516170471F4AD3
:1008E0000029916901D0014300E081439161704783
:1008F0001A4A0029D16901D0014300E08143D16146
:100900007047164A0029D16801D0014300E08143B5
:10091000D1607047114A0029116901D0014300E0FC
:1009200081431161704711494039086070470E4991
:10093000C86470470949C87170470848416A41F066
:10094000807141627047054A0146002092680A4260
:1009500000D00120704701498872704700100240A2
:100960000000FFF8FFFFF6FE000042428004424212
:1009700000127A0000093D0018000020F94910B566
:10098000884202D10121C41486E0B0F1804F09D021
:10099000F54988420DD101210220FFF7BBFF00215C
:1009A000022064E001210846FFF7B4FF0021012086
:1009B0005DE0EE49884206D101210420FFF7AAFF3D
:1009C0000021042053E0EA49884206D10121082091
:1009D000FFF7A0FF0021082049E0E649884206D140
:1009E00001211020FFF796FF002110203FE0E2498F
:1009F000884206D101212020FFF78CFF0021202012
:100A000035E0DE49884202D10121441444E0DC494A
:100A1000884202D10121CC043EE0DA49884202D169
:100A200001210C0538E0D849884202D101214C054A
:100A300032E0D649884206D101214020FFF76AFF03
:100A40000021402013E0D249884206D101218020B4
:100A5000FFF760FF0021802009E0CE4988420AD1DB
:100A6000841501212046FFF755FF00212046BDE8EF
:100A70001040FFF74FBFC849884202D101210C0442
:100A80000AE0C649884202D101214C0404E0C4496D
:100A900088420AD101218C042046FFF732FF20460C
:100AA000BDE810400021FFF72CBF10BD30B5028813
:100AB000AC4CB24DA0420DD0A8420BD0B0F1804F4B
:100AC00008D0A94B984205D0A84B984202D0A84B19
:100AD000984203D122F070034A881A43A54B9842EA
:100AE00006D0A54B984203D022F44073CA881A431B
:100AF00002808A8882850A880285A0420AD0A8429C
:100B000008D0A54A904205D0A44A904202D0A44AF7
:100B1000904201D1097A01860121818230BD30B530
:100B2000028C22F001020284028C8388048B22F062
:100B3000020224F073050C882C430D8915434A8862
:100B40002A43884DA8420BD08C4DA84208D0924D24
:100B5000A84205D0914DA84202D0914DA8420DD196
:100B600022F008054A8923F440732A4322F0040541
:100B70008A882A438D891D43CB892B438380048334
:100B8000C9888186028430BD70B5028C22F01002C3
:100B90000284028C8388048B0D8824F4E6464FF689
:100BA000FF7404EA052535430E8922F0200204EA89
:100BB000061616434A8804EA02123243694EB042CE
:100BC00002D06E4EB04215D122F080064A8923F43D
:100BD000406304EA0212324322F040068A8804EAA3
:100BE000021232438E8904EA86061E43CB8904EA48
:100BF0008303334383800583C9880187028470BDE2
:100C000070B5028C22F480720284028C8388848BFB
:100C10000D8824F0730425430E894FF6FF7422F4E7
:100C2000007204EA062616434A8804EA0222324386
:100C30004C4EB04202D0514EB04215D122F4006663
:100C40004A8923F4405304EA0222324322F48066A4
:100C50008A8804EA022232438E8904EA06161E4379
:100C6000CB8904EA0313334383808583C988818752
:100C7000028470BD70B5028C22F480520284058C0F
:100C80008288838B0C8823F4E6464FF6FF7303EAD1
:100C90000424344325F400560D8903EA0535354311
:100CA0004E8803EA06362E432E4DA84202D0334D1D
:100CB000A84205D122F480458A8903EA82122A4398
:100CC00082808483C988A0F84010068470BD828B1E
:100CD00022F440628283828B4FF6FF7303EA012184
:100CE0000A4382837047828B22F00C028283828BBC
:100CF0000A4382837047028B22F440620283028B94
:100D00004FF6FF7303EA01210A4302837047F0B5EF
:100D1000048C24F010040484078B048C4FF6FF75B8
:100D200027F4734705EA03333B4305EA02221A43DB
:100D30000C4B05EA011698420ED0104B98420BD08E
:100D4000B0F1804F08D0084B984205D0074B98422D
:100D500002D0074B984225D124F02001314341F0C5
:100D6000100124E0002C0140000400400008004075
:100D7000000C00400010004000140040003401400E
:100D8000004C014000500140005401400018004058
:100D9000001C004000200040004001400044014091
:100DA0000048014024F0A0030B4343F010010283EC
:100DB0000184F0BD028B22F00C020283028B0A43F5
:100DC0000283704770B5048C24F001040484058B01
:100DD000048C4FF6FF7606EA0313134325F0F30560
:100DE000F84A2B4390420ED0F74A90420BD0B0F114
:100DF000804F08D0F54A904205D0F54A904202D083
:100E0000F44A904202D124F0020201E024F00A02E6
:100E10000A4342F001010383018470BD2DE9F84FBC
:100E20000D4604460888E74FDFF89CC3DFF89C8333
:100E3000DFF89C934988AA882B894FF0804A48B3F1
:100E400004282FD04FF6FF760828934632D0208C06
:100E50009E4620F480502084A38B208C06EA013229
:100E6000009223F4734306EA0B221A4306EA0E3378
:100E70001343BC420AD0644508D0544506D04445CB
:100E800004D04C4502D0D34A944242D120F40050C1
:100E9000009940E02046FFF795FFE9882046BDE82D
:100EA000F84F87E72046FFF732FFE9882046BDE884
:100EB000F84F20E7208C20F480702084B4F81CE0E8
:100EC000208C06EA031306EA01222EF0F30E43EA11
:100ED0000B0343EA0E030092BC420AD0644508D0DB
:100EE000544506D0444504D04C4502D0B94A9442FA
:100EF00003D120F40070009901E020F42060084341
:100F000040F48070A3832084E9882046BDE8F84F30
:100F1000E9E620F40240084340F48050A383208493
:100F2000E9882046BDE8F84FD1E62DE9F0410C46AE
:100F3000002649880746012501B90226A288012A10
:100F400000D10225208823890028384610D0FFF7D9
:100F5000DEFEE1883846FFF7CEFE23892A46314679
:100F60003846FFF72FFFE1883846BDE8F04121E71A
:100F7000FFF728FFE1883846FFF71CFF23892A4640
:100F800031463846FFF7C3FEE1883846BDE8F041F8
:100F9000B1E610B50A884B88CC881A438B88234366
:100FA0001A430B891A434B8989891A430A43A0F8CB
:100FB000442010BD4FF6FF71818000210180C18067
:100FC0004180017270470021018041808180C18091
:100FD000018141818181C18170470021018041806F
:100FE00001228280C18001817047002101804180FF
:100FF0008180C18001814181818170470029018800
:1010000002D041F0010101E021F0010101807047AF
:10101000002930F8441F02D041F4004101E0C1F33F
:101020000E0101807047002A828901D00A4300E046
:101030008A4382817047818270471143A0F848102B
:101040007047002A828901D00A4300E08A438281E6
:101050007047018921F0070101817047028922F060
:1010600070020A430281704700B50346FFF7F6FF9E
:10107000188940F00700188100BD70B516460D466E
:10108000602904464FF0010231460AD0FFF79AFE6C
:1010900029462046FFF7E2FF208940F00700208123
:1010A00070BDFFF734FEF3E730B504894FF6FF75E6
:1010B00005EA03231343E4B20B432343038130BD0A
:1010C00010B50446FFF7F0FF208940F0770020813B
:1010D00010BD10B50446FFF7E7FF208940F48040BB
:1010E000208110BD018582827047028822F0700243
:1010F0000A430280704770B50589048B068C25F081
:1011000007050D434FF6FC410C4040F201110C4322
:101110004FF6FF7101EA031126F022061143314315
:1011200005810483018470BD028B22F070020A43A2
:1011300002837047028B4FF6FF7322F4E04203EA0A
:101140000121114301837047828B22F070020A4310
:1011500082837047828B4FF6FF7322F4E04203EAEA
:1011600001211143818370470029018802D041F099
:10117000800101E021F08001018070470029818811
:1011800002D041F0040101E021F0040181807047A8
:101190000029818802D041F0080101E021F0080116
:1011A000818070470029818802D041F0010101E06F
:1011B00021F0010181807047028B22F008020A436E
:1011C00002837047002C01400034014000040040BD
:1011D00000080040000C0040028B4FF6FF7322F421
:1011E000006203EA012111430183EAE7828B22F0C6
:1011F00008020A438283E4E7828B4FF6FF7322F4EE
:10120000006203EA012111438183DAE7028B22F0B5
:1012100004020A430283D4E7028B4FF6FF7322F4E1
:10122000806203EA012111430183CAE7828B22F025
:1012300004020A438283C4E7828B4FF6FF7322F4D1
:10124000806203EA012111438183BAE7028B22F015
:1012500080020A430283B4E7028B4FF6FF73C2F3A6
:101260000E0203EA012111430183AAE7828B22F0D7
:1012700080020A438283A4E7828B4FF6FF73C2F396
:101280000E0203EA0121114381839AE7028C22F0C6
:1012900002020A43028494E7028C22F008020A4305
:1012A00002848EE7028C4FF6FF7322F0200203EADD
:1012B00001111143018484E7028C4FF6FF7322F081
:1012C000800203EA0111114301847AE7028C4FF690
:1012D000FF7322F4007203EA01211143018470E7D5
:1012E000028C4FF6FF7322F4006203EA01211143DE
:1012F000018466E7028C4FF6FF7322F4005203EA82
:101300000131114301845CE710B50123048C8B404B
:101310009C430484038C8A401343038410BD10B59E
:101320000423048C8B409C430484038C8A40134325
:10133000038410BD30B50124058C00F118038C40E6
:10134000A543058489B108290FD0091FC1F34E00B8
:101350001844016821F4E041016001684FF6FF7311
:1013600003EA02221143016030BD03EB5100016822
:1013700021F0700101600168F4E70029018802D0C2
:1013800041F0020101E021F00201018019E700298A
:10139000018802D041F0040101E021F00401018044
:1013A0000FE70029818802D041F0800101E021F09F
:1013B0008001818005E7028822F00802028002880D
:1013C0000A430280FDE6828822F0700282808288D1
:1013D0000A438280F5E6028922F00702028102892F
:1013E0000A430281EDE6028922F08002028102892D
:1013F0000A430281E5E68184E3E68185E1E68186B0
:10140000DFE60187DDE68187DBE6A0F84010D8E65D
:10141000028822F44072028002880A430280D0E6E9
:10142000808ECEE6008FCCE6808FCAE6B0F8400012
:10143000C7E6808CC5E6008DC3E602460020128A0E
:101440000A4200D00120BCE6C9430182B9E6024647
:101450000020138A92890B4202EA010202D0002A7C
:1014600000D00120ADE6C9430182AAE6C44910B507
:1014700088420AD101218C032046FFF742FA204618
:10148000BDE810400021FFF73CBABE49884202D1B6
:1014900001214C0410E0BC49884202D101218C0496
:1014A0000AE0BA49884202D10121CC0404E0B849DB
:1014B00088420AD101210C052046FFF72BFA20466D
:1014C000BDE810400021FFF725BA10BD30B5044635
:1014D000008A85B00D464CF6FF710840E98801434B
:1014E0002182A0894EF6F3110840A9882A89114368
:1014F0006A8902431143A181A08A4FF6FF41084047
:10150000A9890143A1826846FFF79EF99C4884425D
:1015100001D1039800E00298A189090400EBC00101
:1015200001EB0010296801D5490000E08900B0FBFB
:10153000F1F06422B0FBF2F109010B096FF018051C
:101540006B4300EB8300A3891D044FF0320306D5E3
:1015500003EBC000B0FBF2F000F0070005E003EB86
:101560000010B0FBF2F000F00F000843208105B03E
:1015700030BD4FF41651016000218180C18001818E
:101580000C2242818181704710B5028A4FF2FF031D
:101590001A400B884C8823438C88C9880C4323430A
:1015A0001343038210BD0021018041808180C180EE
:1015B00070470029818902D041F4005101E021F4F3
:1015C00000518181704710B5C1F3421301F01F042F
:1015D0000121A140012B07D0022B07D01430002A93
:1015E000026805D00A4304E00C30F8E71030F6E753
:1015F0008A43026010BD002A828A01D00A4300E0BB
:101600008A4382827047028A22F00F020282028A93
:101610000A4302827047828922F4006282818289B1
:101620000A43828170470029818902D041F002017A
:1016300001E021F0020181817047028A22F020023C
:101640000282028A0A43028270470029018A02D07C
:1016500041F4804101E021F4804101827047C1F3EF
:101660000801818070478088C0F308007047818935
:1016700041F0010181817047028BD2B20283028B5B
:1016800042EA012101837047028B02F47F42028308
:10169000028B0A43028370470029818A02D041F0FD
:1016A000200101E021F02001818270470029818A18
:1016B00002D041F0100101E021F010018182704759
:1016C0000029818A02D041F0080101E021F00801DF
:1016D000818270470029818902D041F4004101E0F4
:1016E000C1F30E01818170470029818A02D041F443
:1016F000006101E021F4006181827047828A22F05A
:1017000004028282828A0A43828270470029818A87
:1017100002D041F0020101E021F002018182704714
:101720000246002012880A4200D001207047C943B7
:101730000180704770B501F01F0501260024C1F338
:10174000421306FA05F2012B0FD0022B0FD0838A29
:101750004FEA11210088134206FA01F600EA06005A
:1017600001D000B10124204670BD8389F0E7038ACF
:10177000EEE70A0A01219140C94301807047000049
:10178000003801400044004000480040004C004048
:101790000050004000F108014FF0FF32C0E9011293
:1017A000C160016100210160704700210161704743
:1017B000426853684B6043688B605368996051601E
:1017C000416008610168491C0160704710B50B68F1
:1017D0005A1C02D000F1080202E0026904E05268DB
:1017E000546824689C42FAD953684B6099608A60B7
:1017F000516008610168491C016010BDD0E9011207
:101800008A60D0E90112516001694A68824201D1BF
:1018100082684A60002202610868401E08607047C2
:101820002DE9FF5F9B46DDE90E6815468A46442098
:10183000109F00F001FC040009D0A8008146EFB31E
:1018400038462063D8B3A522494601F050FC002C4D
:101850006DD06FF0030000EB8500216B3546084426
:1018600020F007075146102204F1340001F047FC34
:10187000002084F84300052D00D30425201DE562D7
:10188000FFF793FF04F11800FFF78FFF2461C5F104
:1018900005016462A1615A463846009900F07CFB5C
:1018A0002060B8F1000F01D0C8F8004000F0A0FBA4
:1018B000FA4FB868401CB860386801E006E008E0FC
:1018C000DFF8DC8350B1B86980B336E000F0B4FBD8
:1018D000B7E7204600F005FC0024B8E73C60B86894
:1018E00001282AD1002505EB850108EB8100FFF7CF
:1018F00051FF6D1C052DF6D3E9486430FFF74AFF10
:10190000E7487830FFF746FFE5488C30FFF742FFA5
:10191000E348A030FFF73EFFE148B430FFF73AFF5D
:10192000DF48643038631430786306E000E026E076
:101930003868C06AB04200D83C60E06A39698842C1
:1019400000D93861F96A491CF9627969884200D97D
:10195000786100EB800108EB8100211DFFF728FF73
:10196000012400F04DFBB86928B13868C06AB04264
:1019700001D200F037FB04B02046BDE8F09F4FF0E5
:10198000FF34F8E770B5054600F032FBC34E30680F
:10199000854201D1002520E0FDB12C46201DFFF736
:1019A0002DFFA06A18B104F11800FFF727FFBC480B
:1019B000211DA030FFF7FCFE7068401C7060F06ACB
:1019C000401CF06200F01CFBB069002807D0002D1D
:1019D00005D1BDE8704000F005BB3468DEE770BD9E
:1019E00070B5AE4DE86918B1286A401C286270BD18
:1019F000E868401CE860E86830B9286B696B2963C7
:101A00006863A86A401CA862A54E18E06068E9688F
:101A10008842ECD8201DFFF7F1FEA06A18B104F14E
:101A20001800FFF7EBFEE06A6969884200D9686137
:101A300000EB800006EB8000211DFFF7B9FE286B4C
:101A4000006818B1286BC068C46800E00024002C4E
:101A5000DCD170BD2DE9F047002700F0C9FA8F4EA8
:101A6000F069401EF061F06978BBB06868B3DFF8D8
:101A70003082002508F18C08DFF8249218E004F188
:101A80001800FFF7BBFE201DFFF7B8FEE06A716982
:101A9000884200D9706100EB800109EB8100211DB3
:101AA000FFF786FEE06A3168C96A884200D30125E3
:101AB000D8F80010404611B1C068C46800E00024A6
:101AC000002CDCD1306A30B909E011E0FFF788FF63
:101AD000306A401E3062306A0028F7D103E015B941
:101AE000706A012804D100200127706200F07AFAA0
:101AF00000F086FA3846BDE8F0876848C169491C9D
:101B0000C161704770B50C4606460022FFF7F5FF2D
:101B1000624D3368E8681C44834202D9A34202D86C
:101B200005E0A34202D8E868844200D9012234606B
:101B30007AB12868001DFFF761FE28684460E868F4
:101B40002968844201D2686B00E0286B091DFFF709
:101B50003DFEFFF77FFF002803D1BDE8704000F095
:101B600041BA70BD70B5020018D0FFF7C6FF4B4DEB
:101B7000E86884182868001DFFF740FE2868446064
:101B8000E8682968844201D2686B00E0286B091D6F
:101B9000FFF71CFEFFF75EFF002803D1BDE8704091
:101BA00000F020BA70BD10B5044600F021FA0CB95F
:101BB0003A480468E46A00F023FA204610BD2DE993
:101BC000F04100270D460646052900D3042500F004
:101BD0000FFADFF8C880D8F80000864201D100264D
:101BE00008E03EB13446E06AA84228D0854204D9D4
:101BF00026B904E0D8F80040F5E706B90127C5F199
:101C00000501E562A161264D00EB8000616905EBED
:101C10008000814210D1201DFFF7F0FDE06AD8F866
:101C200014204146904200D9486100EB800005EB4A
:101C30008000211DFFF7BCFD0FB100F0D3F9BDE816
:101C4000F04100F0DDB91549C869154A20B10120FD
:101C500048627047401E4861486900EB800052F8B6
:101C6000200000284869F5D000EB800002EB8000DE
:101C70004268526800F1080342609A4201D15268FA
:101C80004260D0680860704770B5054600F0B0F952
:101C9000024E3068854205D100251CE02800002056
:101CA000A4000020BDB12C46201DFFF7A7FDA06AAF
:101CB00018B104F11800FFF7A1FD211DB148FFF78D
:101CC00077FD00F09DF9002D0FD1B06928B1BDE876
:101CD000704000F087B93468E6E7B068012802D0A8
:101CE000BDE87040AFE70020306070BDA54B426991
:101CF00000219A4206D1806AA3F12802904201D0C5
:101D000000B901210846704770B5040026D09E4DE9
:101D10002868844222D000F06BF92046FFF7E6FFE6
:101D2000012817D1201DFFF769FDE06A6969884223
:101D300000D96861934900EB8000B43901EB800061
:101D4000211DFFF735FDE06A2968C96A884201D381
:101D500000F048F9BDE8704000F052B970BD70B5B0
:101D600004460025FFF7C2FF012820D1864EF06906
:101D700020B1844804F11801283816E0E06A31687F
:101D8000C96A884201D3012500E00025201DFFF724
:101D900035FDE06A7169884200D97061794900EBCC
:101DA0008000B43901EB8000211DFFF701FD2846BA
:101DB00070BD744CB43C00F0B7F820680128FAD923
:101DC00000F010F9F7E71FB5002400940194029485
:101DD000234680226DA16F480394FFF721FD01285F
:101DE00009D1FEF70BFA684801218161C460BDE8A2
:101DF0001F4000F0DFB81FBD10B5FEF7FFF96249C4
:101E000000208861BDE8104000F0EBB810B500F08C
:101E1000EFF85D48C46800F0F3F8204610BD5A485A
:101E2000C068704758488068704770B5564C0D467A
:101E300021681831FFF7CAFC2068001DFFF7DEFC9F
:101E4000681C09D0E068216828444860E16888423D
:101E5000216808D2606B07E02168BDE870404948FE
:101E6000091DFFF7A5BC206BBDE87040091DFFF7F9
:101E7000ADBC70B5016811B1C068C46800E0002451
:101E800004F118000646FFF7B9FC3F4DE86918B1A8
:101E90003C48314628380EE0201DFFF7AFFCE06AD1
:101EA0006969884200D96861364900EB8000B4391D
:101EB00001EB8000211DFFF77BFCE06A2968C96AFD
:101EC000884201D3012070BD002070BD2E498A6A6E
:101ED0000260C9684160704770B50D46044600F065
:101EE00087F82868411C14D0274922688B6A9A42D7
:101EF00003D06268CB689A420DD96268CB689B1A9E
:101F0000834208D2C968891A401A28602046FFF720
:101F1000DDFF002400E0012400F072F8204670BDCF
:101F2000194901204862704770B5174D686800284C
:101F300027D0FFF7E2FD134E143E306858B100245D
:101F4000FFF788FD002C1CD100F052F8306820B15A
:101F5000F068C46802E00124F2E70024201DFFF7C6
:101F60004DFCA868401EA8606868401E686000F0CC
:101F700047F8206B00F0B5F82046BDE8704000F04F
:101F8000B0B870BD580100202800002049444C45DD
:101F900000000000B31D000810B5031F4FF080744F
:101FA0001C601B1F1960191F00230B601439403877
:101FB0000A6010BD1D4810B5016841F47F01016041
:101FC000016841F07F4101604FF0E0201849416114
:101FD00007210161174900200860FEF7E9F8002099
:101FE00010BD704711494FF080501C390860704790
:101FF00010B5FEF703F90F480168491C016010BDD8
:102000000C490868401E086001D1FEF7FEB8704711
:10201000064910B51C394FF080500860FEF7EEF805
:10202000FFF7DEFCBDE81040FEF7EFB820ED00E062
:102030003F190100600000202DE9F0410446002511
:10204000FFF75BFD374E06F10801706801F10803E8
:1020500060B93548086000204FF470524860C3E909
:1020600000023148C0E90032012070603CB11034F8
:10207000600704D004F00700C0F108000444601EAB
:1020800043F6FF32904227D2264A0968083201E01F
:102090000A4601464868A04202D208680028F7D1E3
:1020A000994219D015680868106048681035001BFF
:1020B00020280DD90B1958601A484C6008305C680C
:1020C00000E0104602685768A742FAD31A6003601E
:1020D00048683168081A3060FFF7BCFC2846BDE844
:1020E000F08110B5002817D0A0F11004FFF705FD0E
:1020F0000C496068083100E011460A685368834261
:10210000FAD3226007480C606168026811440160DC
:10211000BDE81040FFF79EBC10BD02480068704744
:1021200070470000640000207001002010B586B0E8
:10213000044601A8FEF788FB029942F21072B1FB37
:10214000F2F161430846009103D000BF401E0090A9
:10215000FBD106B010BD10B586B0044601A8FEF74D
:1021600073FB064A0299B1FBF2F161430846009104
:10217000EFD000BF401E0090FBD1EAE780969800A8
:1021800000F04EF84FF480512248FEF72AFA224C14
:1021900008212046FEF727FA20212046FEF723FAE1
:1021A0001E4C4FF400412046FEF71BFAA51500F027
:1021B00099FE00F013FF28B10128F8D100F014FFB8
:1021C00070B113E0012000F012FF29462046FEF70F
:1021D0000AFA00F027FC0028E9D100F0C9F9E6E787
:1021E00029462046FEF7FFF900F089F900F0FCFED1
:1021F000012806D129462046FEF7F3F901E000F058
:1022000038FA00F0F1FE0128D1D100F0E7FE0128F4
:10221000CDD1F4E7000C014000140140001801404A
:102220002DE9F04F8DB00420FEF707F901210820B9
:10223000FEF755FB01214020FEF751FB0121042050
:10224000FEF74DFB01210846FEF749FB01218803FB
:10225000FEF745FB01210420FEF741FB0121082088
:10226000FEF73DFB01212020FEF739FB0121102064
:10227000FEF735FB01214020FEF731FB0121084626
:10228000FEF736FB01210220FEF732FB0121084652
:10229000FEF725FB4FF47040ADF800001025DFF885
:1022A00084B28DF8035002268DF8026069465846C4
:1022B000FEF72DF94FF48079ADF800908DF80350BA
:1022C0008DF8026069469848FEF721F9E802ADF8FA
:1022D00000008DF803508DF8026069469248FEF7C1
:1022E00016F96801ADF800001827DFF840A28DF854
:1022F000037003248DF8024069465046FEF707F943
:10230000A801ADF800004FF004088DF803808DF8A7
:10231000024069465046FEF7FAF8ADF800908DF895
:1023200003508DF8024069465046FEF7F0F8A002CF
:10233000ADF800008DF803508DF8026069465846EC
:10234000FEF7E5F8E002ADF800008DF803508DF8D7
:10235000026069465046FEF7DAF8ADF800608DF885
:1023600003708DF8024069465846FEF7D0F8ADF884
:1023700000808DF803708DF8024069465046FEF7E4
:10238000C6F83C20ADF800008DF803508DF80240EF
:1023900069466748FEF7BBF841F61800ADF8000043
:1023A00048258DF803508DF8024069466148FEF7D4
:1023B000AEF81C20ADF800008DF803508DF80240F7
:1023C00069465948FEF7A3F800244FF49640089058
:1023D000ADF828400C20584DADF82440ADF82A0047
:1023E000ADF82640ADF82C4008A92846FFF76EF856
:1023F0005248C02180F800145048202121384FF065
:102400000108C0F80011424640F225512846FFF766
:10241000DAF801212846FFF7CCF84FF496754FF40F
:102420004876ADF81450ADF818604FF08049ADF81B
:102430001640ADF81A4005A94846FEF737FB01A83B
:10244000FEF7C1FD3027ADF80470ADF8068001A994
:102450004846FEF7D5FBADF81450ADF81860ADF85E
:102460001640ADF81A40364C05A92046FEF71EFB73
:1024700001A8FEF7A8FDADF80470ADF8068001A92B
:102480002046FEF7F7FB0DB0BDE8F08F70B5254C88
:10249000012813D0022814D003281AD004281BD1F5
:1024A000450329462046FEF79CF89620FFF73EFE9E
:1024B00029462046BDE87040FEF795B84FF4805598
:1024C000EFE74FF4005529462046FEF78AF8322000
:1024D000ECE74FF48045E4E770BD1A49002008702E
:1024E000704718480078704770B5164D0446287834
:1024F000844202DD0420FFF7C9FF2C7070BD70B567
:10250000094D4FF4004421462846FEF76CF84FF47D
:10251000FA70FFF70BFE21462846BDE87040FEF733
:1025200060B80000000C01400018014000080140A4
:1025300000140140001001400038014025E000E097
:10254000000400407C0000207047FEE7FEE7FEE745
:10255000FEE77047FE4918B100204870087005E09A
:10256000487818B1087808B10120704700207047FA
:102570002DE9F047F74C08212046FEF734F82021DA
:102580002046FEF730F804212046FEF72AF81021F5
:102590002046FEF726F8F04EE51429463046FEF7B1
:1025A00022F821153046FEF71EF82946EB4D284645
:1025B000FEF717F84FF4805949462846FEF711F800
:1025C00008212046FEF70DF820212046FEF709F8E5
:1025D00004212046FEF707F810212046FEF703F8F5
:1025E0004FF08048C8214046A8F82C10DC4A1180E2
:1025F0000121FEF703FDDFF868A30121AAF12C0AEF
:102600005046FEF7FBFCD74F0125D14E28E000F0E5
:1026100069FC49463846FDF7D0FF60B908212046DD
:10262000FDF7E1FF04212046FDF7DBFF00215046C6
:10263000FEF7E4FC757008213846FDF7BEFF60B96F
:1026400020212046FDF7CFFF10212046FDF7C9FFCE
:1026500000214046FEF7D2FC35700120FFF766FDF1
:102660000020FFF777FF0028D1D0BDE8F047012018
:1026700070E72DE9F05FB84E4FF40065002429465D
:102680003046FDF7B0FF69103046FDF7AAFF294636
:10269000B24D2846FDF7A7FFA9142846FDF7A3FF72
:1026A000DFF8B0B208215D465846FDF79AFF2021B9
:1026B0002846FDF796FF04212846FDF794FF1021D8
:1026C0002846FDF790FF3220FFF730FD40F28A21C7
:1026D00048078185A24D4FF42F6129800121FEF723
:1026E0008DFC9F4801212C38FEF788FC4FF0010932
:1026F000A246974E4FF4167700F070FC002844D0A5
:1027000000F0F0FBDFF85C824FF400614046FDF71B
:1027100054FF88B110214046FDF74FFF08B3002C4D
:1027200074D0641E962C71D2B07802282FD0012864
:102730003CD0002852D04CE008215C465846FDF7BA
:1027400052FF20212046FDF74EFF04212046FDF7D1
:1027500048FF10212046FDF744FF002000F047FC11
:1027600012E008215C465846FDF73DFF2021204637
:10277000FDF739FF04212046FDF733FF10212046E5
:10278000FDF72FFFFFF7F4FE0020BDE8F09F4FF4A8
:102790001660B0FBF4F000F0BDFEB060706800F0B1
:1027A000A1FEB16800F0CAFE6F490DE040F6282096
:1027B000B0FBF4F000F0AEFEB060706800F092FE86
:1027C000B16800F0BBFE694900F00AFE00F06AFE45
:1027D00028807068801C70607CB117E04FF4256021
:1027E000B0FBF4F000F096FEB060706800F07AFE86
:1027F000B16800F0A3FE5E49E6E7C6F808A0C6F897
:1028000004900320B0704FF42F602880DFF86481BB
:1028100004214046FDF7D1FE28B10220B0704FF4EC
:10282000C8703C46288008214046FDF7C6FE20B10E
:1028300086F80290C8203C46288010214046FDF7CB
:10284000BCFE20B186F802A0A0203C4628800A20C9
:10285000FFF76CFC50E72DE9F05F3E4D0E46044655
:1028600008212846FDF7BFFE20212846FDF7BBFEC4
:1028700004212846FDF7B5FE10212846FDF7B1FEDC
:10288000354F4FF4006949463846FDF7ACFE29152F
:102890003846FDF7A8FEDFF8C8B0DFF8C0A0B6B232
:1028A000ABF12C0B012C01D0022C1BD108212846A6
:1028B000FDF797FE04212846FDF795FE012C02D076
:1028C000022C05D008E049465046FDF78AFE03E099
:1028D00049465046FDF787FE2148068001215846AB
:1028E000FEF78CFB4FF480584FF08047032C01D04B
:1028F000042C1AD120212846FDF773FE102128460A
:10290000FDF771FE032C02D0042C05D008E04146EF
:102910005046FDF766FE03E041465046FDF763FE74
:102920003846BE850121FEF769FB0E4E012C2BD1E6
:1029300000F0D8FA0120FFF7F9FB41463046FDF7D9
:102940003CFE0028F4D108212846FDF74CFE13E098
:102950008000002000140140000C014000080140EC
:102960002C040040001001400000C8430000484310
:10297000000020430018014004212846FDF731FEE5
:1029800000215846FEF73AFB022C16D100F0AAFAB5
:102990000120FFF7CBFB49463046FDF70EFE00282D
:1029A000F4D108212846FDF71EFE04212846FDF734
:1029B00018FE00215846FEF721FB032C16D10120FA
:1029C000FFF7B4FB00F08EFA08213046FDF7F5FD65
:1029D0000028F4D120212846FDF705FE10212846C5
:1029E000FDF7FFFD00213846FEF708FB042C18D147
:1029F0000120FFF79BFB00F075FA10213046FDF730
:102A0000DCFD0028F4D120212846FDF7ECFD102143
:102A10002846FDF7E6FD3846BDE8F05F0021FEF7E9
:102A2000EDBAB2E610B51E4C4FF480512046FDF7CA
:102A3000C4FD30B108212046FDF7BFFD08B10020DC
:102A400010BD012010BD10B5154C4FF4805120462B
:102A5000FDF7B3FD20B908212046FDF7AEFD08B112
:102A6000002010BD012010BD10B50E4C08212046DD
:102A7000FDF7B9FD20212046FDF7B5FD04212046D4
:102A8000FDF7AFFD10212046FDF7ABFD002120052D
:102A9000FEF7B4FABDE8104000210348FEF7AEBAD5
:102AA000001001400014014000040040F0B587B060
:102AB00001210420FDF713FF01210846FDF70FFF58
:102AC00001218C032046FDF70AFF6011ADF80000DC
:102AD00018208DF80300FE4E03258DF8025069463C
:102AE0003046FDF714FD2011ADF8000004208DF8EC
:102AF00003008DF8025069463046FDF708FD0121BC
:102B00002046FDF7ECFE4FF49640002401900C2087
:102B1000ADF80E00EF4FADF80A40ADF81040ADF83B
:102B20000C40ADF8084001A93846FEF7CFFC012162
:102B30003846FEF73EFD012240F225513846FEF7A9
:102B400042FD25208DF8140001208DF817008DF826
:102B500015408DF8164005A8FDF72FFCB015ADF80F
:102B6000000010208DF803008DF8025069463046B1
:102B7000FDF7CDFC07B0F0BD2DE9F041D54F40F297
:102B800025513846FEF7D6FD0025D34C4FF4AF76DD
:102B9000012805D139883846090709D0FEF763FDB9
:102BA0004FF458713846FEF7C5FD012817D019E0DB
:102BB000FEF759FD0146A088C84A0244401CA08087
:102BC0001170A088B04200D1A5802089401C80B23D
:102BD0002081B042E4D1258101202070E0E7384611
:102BE000FEF741FD40F2277841463846FEF7A2FD48
:102BF000012811D1E08988B1E089401EE081A089D7
:102C0000B7490144401CA08109783846FEF727FDEA
:102C1000A089B04200D1A581BDE8F0814146384687
:102C2000BDE8F0410022FEF7CEBC2DE9F041AA4CF0
:102C3000E088AA490144401CE0800D78E088B0F5A6
:102C4000AF7F01D10020E080A24F40F22556002244
:102C500031463846FEF7B7FC2089401E208101220C
:102C600031463846FEF7AFFC2846D5E79A4800893A
:102C7000002800D00120704770B50446FFF7F6FF2A
:102C8000002548B1944E30890028FCD0FFF7CDFFD5
:102C900004F8010BC028F6D1257070BD2DE9F04174
:102CA0000600B9D08C4C4FF4AF75E289AA42FCD033
:102CB000884F40F22778002241463846FEF783FCD1
:102CC000E08950B980213846FEF72AFD28B1314607
:102CD0003846BDE8F041FEF7C2BC60898049014436
:102CE000401C60810E706089A84201D10020608183
:102CF000E089401CE08141463846BDE8F0410122B0
:102D0000FEF761BC88E710B5044602E0641CFFF7DB
:102D1000C5FF20780028F9D110BDC1F307200B288A
:102D200001D000207047012070472DE9F04107468F
:102D30000C46084600F0BCF92178072861F3070526
:102D4000617861F30F25A17861F3174508D04FF042
:102D50000401615C61F317460BD14FF005010AE0F5
:102D6000E17861F31F65217961F307064FF00601F1
:102D7000EFE74FF00301615C61F30F2687E8610024
:102D80004AE770B504460D46084600F091F9C1B215
:102D900007230EE015F8010B44400020220602D55F
:102DA00083EA440200E06200401CC0B2D4B20828AA
:102DB000F4D3491EC9B2EDD2204670BD70B50546A8
:102DC00045480B2210300023027041708370C220EE
:102DD00060F3070462F30F2461F317443E49184679
:102DE0001031FFF7CEFFC02160F31F64C02805D06B
:102DF000C12803D0C22801D07B2803D180F07B00FA
:102E000060F31F642C60297170BD10B5324B1446FD
:102E10000A0A1033090C1A7059700021997007289A
:102E200001D19C70D9702C4900201031FFF7A9FF07
:102E300029498870C4F30721814201D1012010BDC6
:102E4000002010BD2DE9F04104460170080A6070B1
:102E5000080C0D461746A07000F0CFF800262D0E86
:102E6000FFB238B10120E07025716771A6710020B2
:102E700000F0C0F800F0C1F8002802D1E570277119
:102E80006671C9E67CB50446062000F0BBF806462C
:102E900021466846FFF792FF0D4D4FF4807421469E
:102EA0002846FDF79EFBDDE900123046FFF7CAFF1A
:102EB0003046FFF728FF3220FFF738F9304600F0A0
:102EC000D0F821462846FDF78EFB01207CBD00008E
:102ED00000080140003801408C000020703D0020B7
:102EE000CE3E0020FEB5062000F08CF80646FFF727
:102EF000BDFE002860D00220FFF7C8FA3046FFF779
:102F0000BBFE31466846FFF710FFDDE90145009F33
:102F10002A4621463846FFF778FF08B32A4621465D
:102F20003846FFF7FAFED8B1C4F30741042926D08A
:102F300006DC012909D002290CD003293CD110E07C
:102F4000782930D0792937D123E000F047F838B913
:102F5000022011E000F042F810B9012000F041F821
:102F60002AE000F041F810B90420FFF78BFF00F0D1
:102F70003BF8012820D10320FFF784FF1CE000F07C
:102F80002DF8012818D1002000F02BF8FFF76CFD78
:102F900012E00F4801680F4A01F4E061114301603B
:102FA000BFF34F8FFEE7200E00EB80006C2101EB9A
:102FB0004001E8B2FFF74FFC3046BDE8FE4000F0AC
:102FC00050B8054948707047034840787047000082
:102FD0000CED00E00400FA058C0000200848407861
:102FE0007047074948707047054880787047044922
:102FF0008870704702490870704701480078704730
:10300000A100002070B5064600F0A8F8056806F19A
:103010000B0020F00704B4429CBF002070BD2B467B
:103020006A68BAB11068A04210D304F1080188425E
:103030003CBF5068586007D351681019416011684F
:10304000091B016058601460101D70BD1346526862
:10305000002AE7D12146284600F088F80028DED172
:1030600070BD70B50446051F00F078F80068002CAC
:1030700014BF446870BD002C18BFAC423CBF204652
:103080006468F8D301680A18AA4218BF456003D1E2
:103090002A6805461144016028684119A1421CBFF5
:1030A0006C6070BD6168696021680844286070BD0B
:1030B00010B5431C02E010F8011B71B18107FAD171
:1030C0004FF0013202C88C1A8C4314EAC211F9D0B5
:1030D000C01A0A0603D0C01E10BDC01A10BD0A04D3
:1030E00001D0801E10BD0902FCD0401E10BD02F0B0
:1030F000FF0343EA032242EA024200F083B810B51C
:10310000044610F0030F08BF11F0030F40F01580C4
:103110004FF0013E121FC0F20E8051F8043BA3EBAA
:103120000E0C2CEA030C1CEACE1C08BF40F8043B32
:10313000F0D0A1F1040102F10402521E08DB11F8E3
:10314000013B002B00F8013BF7D1114600F058F885
:10315000204610BD70477047704700000048704718
:1031600034400020704770477047704738B50446B8
:103170000A4600206946AFF30080002808BF38BD2A
:1031800002460099204600F061F8012038BD012078
:1031900000F076B8F8B5AFF30080054600200C4685
:1031A000102000BF0646A819A0420DD93246694634
:1031B0000020AFF30080070008BF00F061F800981E
:1031C000A04218BF0546C419FFF7C8FF05600746AF
:1031D000F01D20F007004619284600F00AF8B44216
:1031E00008BFF8BDA21B31463868BDE8F84000F0C2
:1031F0002DB800210160C0E9011070471020704710
:103200004FF000020429C0F0128010F0030C00F00F
:103210004080CCF1040CBCF1020F18BF00F8012B68
:10322000A8BF20F8022BA1EB0C0100F032B85FEA36
:10323000C17C24BF00F8012B00F8012B48BF00F827
:10324000012B7047004870472C400020034640681F
:103250008C46002818BF88423CBF03464068F8D31C
:1032600018681844884207D00CF1030020F00700CA
:10327000001D411A521A0146081D0A60FFF7F1BEEF
:1032800010B500F05FF8BDE8104000F056B84FF000
:10329000000200B5134694469646203922BFA0E8A6
:1032A0000C50A0E80C50B1F12001BFF4F7AF0907B2
:1032B00028BFA0E80C5048BF0CC05DF804EB8900A3
:1032C00028BF40F8042B08BF704748BF20F8022BE6
:1032D00011F0804F18BF00F8012B704770477546FA
:1032E000FFF7B0FFAE4605006946534620F00700E1
:1032F000854618B020B5FCF79DFFBDE820404FF093
:1033000000064FF000074FF000084FF0000B21F0CF
:103310000701AC46ACE8C009ACE8C009ACE8C0099C
:10332000ACE8C0098D46704710B50446AFF3008085
:103330002046BDE81040FCF724BF002801D000F073
:1033400029B8704710B5012805D0002103A000F06E
:1033500027F8012010BD09A1F8E7000053494752A2
:10336000544D454D3A204F7574206F662068656155
:1033700070206D656D6F7279000000003A2048651D
:103380006170206D656D6F727920636F72727570F8
:103390007465640001491820ABBEFEE726000200F8
:1033A00070B505460C460A2000E06D1C00F011F8CF
:1033B00035B128780028F8D102E0641C00F009F843
:1033C00014B120780028F8D1BDE870400A20AFF38E
:1033D000008008B569468DF800000320ABBE08BD2B
:1033E00090EA010F48BF81F0004100F17A81421A52
:1033F0003CBF801A89184FEAD0524FF07F4C1CEA2C
:10340000410FA2EBD15318BF9CEA026F00F03B8042
:103410004FF0004C4CEA00204CEA012121FA03FC59
:1034200010EB0C0C1ED202F1FF325FEA1C2040EBC5
:10343000C25038BF70471CF07F0F4FEA400C18BFD6
:10344000BCF17F4F38BF7047C3F12003994008BFDC
:1034500020F00100BCF17F4F38BF7047A0F1C040A1
:1034600000F033B94FEA3C00000A40EBC25028BFDD
:103470001CF0FF0F4FEA400CE6D018BFBCF17F4FA5
:1034800038BF7047EAE79CEA026F05D010EA5C0F8C
:1034900008BF00F00040704710B500F0D0F800BF42
:1034A00064FBBE3EC10DD1F19E0206DB4FEA002354
:1034B00043F0004323FA02F07047004207D54FEA79
:1034C0004001B1F1FE4F02D24FF00000704710B53D
:1034D00000F0B5F849922480002070476FEA200080
:1034E0007047000010F0004148BF4042B0FA80F33E
:1034F00010FA03F2C3F19D030BD051EAC35101EB63
:103500001220530638BF704700F1010008BF20F0B9
:1035100001007047B0FA80F310FA03F2C3F19D0383
:103520000AD0D90501EB1220530638BF704700F1CD
:10353000010008BF20F00100704700004FF47F0C2D
:103540001CEAD0121EBF1CEAD11392EA0C0F93EAB8
:103550000C0F00F0478090EA010F48BF42F48072E0
:103560004FF0004C4CEA00204CEA012102EB030230
:10357000A0FB0113A2F50002002918BF43F00103CC
:103580005B0028BF4FEA330342EB22425FEA132C71
:103590004CEBC2502EBFBCEB436FB2F57C0F7047B3
:1035A0004FEA036CBCF1004F08BF20F00100B2F5F8
:1035B0007C0F38BF70470BD582F0FF0212F5803FB9
:1035C000C8BF704700F1C040D8BF00F0004070474E
:1035D00000F5000C5FEA4C0C48BF7047B0F1C040EA
:1035E00000F073B890EA010F0CEAD11348BF42F41F
:1035F0008072624538BF634504D280EA010000F062
:103600000040704710B500F01AF800BF8900013E75
:1036100000F007B800F009B85FEA410C5FEA1C6CE3
:1036200008D080EA010000F050B85FEA400C5FEA81
:103630001C6CF6D14FF00040A0F5800070470EF1F1
:10364000020E2EF0030E5EF8044B244204D44FEA1F
:103650004102B2F17F4F11D84FEA4003B3F17F4FDF
:103660000CD80ED14FEAD07CB2F17F4F0CEB4C0C52
:103670000CF1020C08BF4CEBD17C04E04FF0080CBD
:1036800001E04FEAD17C0CEB4C0324FA03F404F084
:103690000704B4F1040C06D20EEB840CBDE8104014
:1036A0004CF0010C6047DFE80CF0070802024FF015
:1036B0000040A0F5800010BD0846420018BFD2F1BE
:1036C000807288BF00F0004010BDFF2141EAD05059
:1036D000C005704790EA010F48BF81F000413FF5F7
:1036E00086AE421A04D882F00042A0EB02001144D8
:1036F0004FEAD0524FF07F4C1CEA410FA2EBD1535E
:1037000018BF9CEA026F4AD04FF0004C4CEA0020F0
:103710004CEA012121FA03FCB0EB0C0C0FD412F09F
:10372000FE0F36D05FEA4C001DD5001240EBC250B0
:1037300038BF70471CF03F0F18BF70470BE0A2F175
:1037400001025FEA1C2040EBC25038BF70471CF0FA
:103750007F0F18BF7047C3F12003994014BF401E6C
:1037600020F00100704780084FEA122308BF70471D
:10377000B0FA80FCA2EB0C02CCF1280C60FA0CF041
:1037800093EA122F04BF00EBC25070474FEAC37098
:103790007047130A5FEADC1008BF7047F6E79CEA3F
:1037A000026F04D010EA5C0F08BF0020704710B50C
:1037B000FFF745FF40DFF63E81F000407047000014
:1037C000E037000800000020A400000028010008E5
:1037D00084380008A4000020EC45000044010008E3
:1037E00000A24A04000000000000000001020304DF
:1037F000060708090204060800000000010203048D
:103800000102030406070809000000000000000090
:1038100000000000000000000000000000000000A8
:103820000000000000000000000000000000000098
:103830000000000000000000000000000000000088
:10384000AAAAAAAA003C0000000000000000000094
:103850000000000000000000000000000000000068
:103860000000030001000000000000000000000054
:103870000000000000000000000000000000000048
:043880000000000044
:04000005080000ED02
:00000001FF
